:020000040800F2
:1000000018BC0120E9540008010600080306000896
:1000100005060008070600080906000800000000A1
:100020000000000000000000000000000B060008B7
:100030000D060008000000000F0600081106000869
:100040000355000803550008035500080355000830
:100050000355000803550008035500080355000820
:100060000355000803550008035500080355000810
:100070000355000803550008035500080355000800
:1000800003550008035500080355000803550008F0
:1000900003550008035500080355000803550008E0
:1000A00003550008035500080355000803550008D0
:1000B0000355000831090008F580000803550008C1
:1000C00003550008035500080355000803550008B0
:1000D00003550008A17A00080355000803550008DD
:1000E0000355000803550008035500080355000890
:1000F0000355000803550008035500080355000880
:10010000035500080355000803550008035500086F
:10011000035500080355000803550008035500085F
:10012000035500080355000803550008035500084F
:1001300003550008F5500008035500080355000852
:10014000035500080355000803550008035500082F
:10015000035500080355000803550008035500081F
:10016000035500080355000803550008035500080F
:1001700003550008035500080355000803550008FF
:10018000035500080355000800F002F800F06DF870
:100190000AA090E8000C82448344AAF10107DA45E2
:1001A00001D100F062F8AFF2090EBAE80F0013F0C7
:1001B000010F18BFFB1A43F001031847E03E01008E
:1001C000003F01000A444FF0000C10F8013B13F00F
:1001D000070408BF10F8014B1D1108BF10F8015BA0
:1001E000641E05D010F8016B641E01F8016BF9D193
:1001F00013F0080F1EBF10F8014BAD1C0C1B09D1EA
:100200006D1E58BF01F801CBFAD505E014F8016B5B
:1002100001F8016B6D1EF9D59142D6D370470000ED
:100220000023002400250026103A28BF78C1FBD8FF
:10023000520728BF30C148BF0B607047642911F0D6
:10024000FF84752911F0FC84782911F03585632924
:1002500011F07F87732911F08487002070471FB544
:1002600012F042F91FBD10B510BD11F0C7FF1146C5
:10027000FFF7F5FF00F08FF811F0E5FF03B4FFF78B
:10028000F2FF03BC07F0AEFBF0B505468A488BB021
:100290004FF478410180894EE8074FF6FF774FF021
:1002A00010042AD000971E2132886E23084604F0DD
:1002B00015FC83A0CDE900401E211023C82208466A
:1002C00004F023FE83A0CDE900401023C822322190
:1002D0001E2004F01AFE84A0CDE900401023C8229D
:1002E00046211E2004F011FE83A0CDE9004010231A
:1002F000C8225A211E2004F008FEA80749D50097FD
:10030000738832886E211E2004F0E8FB7DA0CDE9C1
:1003100000401023C8226E211E2004F0F6FD7E4806
:10032000817D427B0229017BCDE90012C37A827A6A
:1003300012D07AA102A811F01FFC02A8CDE900405A
:100340001023D22282211E2004F0DFFD04F0CAFE19
:10035000800703D577A002E07BA1EBE77FA0CDE982
:1003600000401023C82296211E2004F0CEFD80A05C
:10037000CDE900401023C822AA211E2004F0C5FDAB
:100380007EA0CDE900401023C822AA211E2004F03F
:10039000BCFD0BB0F0BD1CB5A82007F0C9FA4FF4A6
:1003A000A06005F0C1F84FF4E13007F023FB774877
:1003B00041685420884700F055FA00F0E9F901F04F
:1003C00001F804F041FF002011F0F2FA012011F0D1
:1003D000EFFA022011F0ECFA37494FF47840088028
:1003E0000120FFF751FF40F2473140F2E73000F0C3
:1003F00073FA10244FF496664FF6FF751BE064A065
:10040000CDE900401423C82296211E2004F07DFD72
:10041000304607F0CEFA8223E6226E211E20009598
:1004200004F05CFB5FA0CDE900401023C8226E21E0
:100430001E2004F06AFD08F040FB0028DFD15CA01C
:10044000CDE900401423C8226E211E2004F05DFD7A
:100450005CA0CDE900401023C82282211E2004F0B8
:1004600054FD2D4C01E008F0F4FBA07D022802D0E1
:10047000A07DFF28F7D10220FFF706FF4FF4FA74A2
:10048000204607F096FA204607F093FA08F061FE3E
:10049000524C002000F096F9022808D120788006FE
:1004A00003D54FA011F05CFB01E008F052FE0A20DA
:1004B00007F07FFAEDE70000160000207002002030
:1004C0004578706C6F7265722053544D33324634E8
:1004D0000000000045746865726E6574206C774991
:1004E000502054657374000041544F4D40414C49B5
:1004F000454E54454B000000323031342F382F31F7
:10050000350000006C77495020496E69742053759E
:1005100063636573736564005403002053746174EE
:1005200069632049503A25642E25642E25642E25C2
:100530006400000045746865726E657420537065D0
:1005400065643A3130304D00444843502049503AB8
:1005500025642E25642E25642E2564004574686567
:10056000726E65742053706565643A31304D0000D9
:10057000504F52543A203830383700004B455931EB
:100580003A2053656E64206461746100A00000200D
:100590004C57495020496E69742046616C69656406
:1005A000210000005265747279696E672E2E2E004C
:1005B0004C57495020496E697420537563636573C5
:1005C000732100004448435020495020636F6E66F9
:1005D0006967696E672E2E2E00000000A8010020BA
:1005E000554450C1ACBDD3D2D1BEADBDA8C1A22C23
:1005F000B2BBC4DCD6D8B8B4C1ACBDD30D0A0000C0
:100600007047FEE7FEE7FEE7FEE77047704770477A
:10061000704700000CB5002254490092019208680E
:1006200040F4803008604FF4A043086800F40030C4
:1006300001900098401C0090019810B900989842D1
:10064000F3D10868800334D5012001904748403039
:10065000026842F0805202604548026842F440421B
:1006600002604248083002680260026842F40042B8
:100670000260026842F4A0520260031F3D4A1A6001
:100680000A6842F080720A600A689201FCD53A4911
:1006900040F205720A60016821F0030101600168FF
:1006A00041F0020101600168C1F381010229FAD120
:1006B0000CBD01920CBD314810B5016841F47001C8
:1006C00001602A48016841F001010160274A0021C8
:1006D0000832116002682A4B1A400260031D294A41
:1006E0001A60026822F48022026020480C30016007
:1006F000FFF790FF21494FF000608039086010BD7E
:1007000070B51A4D083528681F4B204910F00C00B1
:1007100004D05E10042803D0082803D00B601BE02F
:100720000E6019E0114A121D1068C0F38054106861
:1007300000F03F0014B1B6FBF0F001E0B3FBF0F0C5
:1007400013681268C3F388135843C2F30142521C62
:100750005200B0FBF2F0086028680C4AC0F30310A6
:10076000121D105C0A68C2400A6070BD0038024069
:100770000070004008544007003C024088ED00E053
:10078000FFFFF6FE103000240024F40000000020DB
:100790001CB50121112005F08EF91C2000900020CD
:1007A0008DF8040001248DF807406946284804F0BC
:1007B0007FFF02208DF8070000946946254804F069
:1007C00077FF1CBD70B5244C244E254D012108B186
:1007D000217001E0207860B1D5F8100270B1D5F831
:1007E0000C0258B1D5F8080240B1D6F80002012831
:1007F00004D0D5F8100201281BD026E00A2007F00B
:10080000D8F800202070D5F8100250B1D5F80C02AD
:1008100048B1D5F8080240B1D6F80002012806D048
:1008200013E0012070BD022070BD032070BD0420C4
:1008300070BDD5F80C02012807D1D5F808020128AF
:1008400003D1D6F8000200B92170002070BD00006D
:10085000001002400000024014000020000040424E
:10086000000042427CB50121202005F024F901203E
:100870008DF8040000208DF806008DF80700032095
:10088000134D4FF4C0648DF8050000946946284666
:1008900004F00EFF2146284604F06FFF7CBD10B522
:1008A00000230C4A012438B1012804D169B101297F
:1008B00001D1C2F8A83210BD21B10129FBD1C2F883
:1008C000A43210BDC2F8A44210BDC2F8A84210BDA7
:1008D00000140240008042427FB50D4604460121CB
:1008E000022005F006F900210194ADF80050194CE2
:1008F000ADF80210ADF808106946204605F072FA0E
:1009000001221146204605F0F6FD0121204605F0A2
:10091000E1FA1D208DF80C0001208DF80D00032157
:100920008DF80E108DF80F0003A804F002FE7FBDB5
:1009300010B5084C0121204605F0F1FD012803D136
:1009400005490A680A320A602046BDE810400121C4
:1009500005F0F1BD00040040A401002001B5BDF880
:100960000000ADF80000BDF800004FF0D841A1F83C
:100970007E0008BD01B5BDF80000ADF80000BDF86F
:1009800000004FF0D841A1F8800008BD08B54FF035
:10099000D840B0F88000ADF80000BDF8000008BDF8
:1009A00003B5BDF800104FF0D84020F87E1FBDF809
:1009B000041041800CBD01B5BDF80000FFF7CEFF6B
:1009C000052006F0C8FFBDE80840DFE7FC484FF00F
:1009D000D8410089A1F87E0070474FF0D841A1F8B6
:1009E00080007047C0F34511C20AC00200EB4110FD
:1009F000104480B27047401EC0B2FCD27047F0B5C0
:100A0000EF4E0C460246050AB1883046A1F5134365
:100A100040894FEA142C413B1AD0A1F5A643103B64
:100A200016D0B646B3793688A1F5D047B61A761EE9
:100A3000043F17D07746A1F5C85EBEF1630E25D0FE
:100A4000A1F5A04EBEF5A26E57D0012B6ED06EE080
:100A5000FFF784FF2846FFF78DFFD0B2FFF78AFF2C
:100A6000B0890CE07546012B00D1B2B2FFF776FFDA
:100A7000100AFFF77FFFD0B2FFF77CFFA889FFF7CE
:100A80006DFF6046FFF776FFE0B225E03BB3FFF76E
:100A900065FF2846FFF76EFFD0B2FFF76BFF38887F
:100AA000401EC0F30F20FFF765FF3878401EC0B22C
:100AB000FFF760FFB889FFF751FF6046FFF75AFF65
:100AC000E0B2FFF757FF7888401EC0F30F20FFF712
:100AD00051FFB878401EC0B2BDE8F0404AE7B2B25C
:100AE000FFF73CFF0020FFF745FF0020FFF742FF24
:100AF000100AFFF73FFFD0B2DAE7FFF72FFF2846D3
:100B0000FFF738FF7889401C80B2FFF727FFD0B28B
:100B1000FFF730FFB889FFF721FF6046FFF72AFF94
:100B2000B889401C80B2FFF719FFADE7B2B2114699
:100B3000FFF736FFB8892146BDE8F04030E7FEB543
:100B40000022ADF80020ADF80420ADF808209C4D3F
:100B50002A88824202D96A888A4201D80020FEBDD2
:100B6000FFF74DFFA88849F2413641F6631745F279
:100B7000103245F21054B04207D0A0F5D0410439EC
:100B800003D0904201D0B84201D12E2005E0A0420E
:100B900002D14FF4385000E02220FFF7DFFEA88892
:100BA000A0F51341203903D10220401EC0B2FCD26F
:100BB000FFF7ECFEADF80000A888B84249D002204B
:100BC000401EC0B2FCD2FFF7E1FEADF80000A888DD
:100BD000B04203D0904201D0A04214D10220401E66
:100BE000C0B2FCD2FFF7D2FEADF80800BDF800009D
:100BF000C0B2ADF80400BDF804004FF6FF7101EA81
:100C00000020ADF80400A888A0F51341253920D0B4
:100C1000A0F58A4135391CD0091D1AD0A0F53541FF
:100C2000053916D0B1F5805113D0B04203D09042AF
:100C300001D0A04210D1BDF80000BDF804106FF340
:100C40000A00890A40EA4110BDF8081040EAD120A4
:100C5000FEBDBDF80000FEBDBDF80000BDE8FE40D1
:100C6000C0E657488088A0F51341413913D0A0F55C
:100C7000D04104390FD0A0F5A64110390BD0A0F512
:100C8000C851633907D0A0F5AA41103905D040F208
:100C90007311072084E6292001E04FF424505DE61B
:100CA00047488088A0F51341413912D0A0F5D041C2
:100CB00004390ED0A0F5A64110390AD0A0F5C851CC
:100CC000633906D0A0F5AA41103904D000210720CD
:100CD00066E6282001E04FF420503FE6F0B5384F9B
:100CE00000243946BA79898846F6040341F663152B
:100CF000012A01D02AB11DE099421BD0A94202D19C
:100D000018E0A94216D1082814D2DFE800F0040642
:100D1000080A0C0E101206200CE007200AE004203E
:100D200008E0052006E0012004E0002002E00320A6
:100D300000E00220A1F5134C45F2103245F21056A6
:100D4000BCF1410C07D0994205D0914203D0B14289
:100D500001D0A9427ED1082812D2DFE800F01104A8
:100D600006080A0C0E1080240AE0402408E0C02483
:100D700006E0202404E0602402E0A02400E0E02457
:100D8000B14202D14FF4585000E03620914205D0D4
:100D9000B14203D0A94201D044F00804994201D1E4
:100DA00044F002042146FFF7FBFDBA88AA420DD0A9
:100DB000A0063888798805D5884205D306E000006A
:100DC00070020020884201D9398078807889B24247
:100DD00041D1FFF7C3FD0020FFF7CCFD7889401C0F
:100DE00080B2FFF7BBFD0020FFF7C4FD7889801CAF
:100DF00080B2FFF7B3FD3888401EC0F30F20FFF725
:100E0000B9FD7889C01C80B2FFF7A8FD3878401E74
:100E1000C0B2FFF7AFFDB889FFF7A0FD0020FFF7D4
:100E2000A9FDB889401C80B2FFF798FD0020FFF7AC
:100E3000A1FDB889801C80B2FFF790FD7888401E24
:100E4000C0F30F20FFF796FDB889C01C80B2FFF7F2
:100E500085FD22E027E0FFF781FD0020FFF78AFDF6
:100E60000020FFF787FD3888401EC0F30F20FFF7F2
:100E700081FD3878401EC0B2FFF77CFDB889FFF7CE
:100E80006DFD0020FFF776FD0020FFF773FD7888E9
:100E9000401EC0F30F20FFF76DFDB878BDE8F040AD
:100EA000401EC0B266E5082812D2DFE800F0040652
:100EB00008110A0C0E1030240AE0102408E0202447
:100EC00006E0382404E0282402E0182400E0082486
:100ED00044F48051BDE8F040032061E500B5FFF720
:100EE0008EFDFFF773FDFE484FF0D8410088A1F852
:100EF000800000BD2DE9F041FA4D90460C460246B7
:100F0000060AA9882846A1F5134340894FEA142C04
:100F1000413B16D0A1F5A643103B12D0B3F50073A8
:100F200013D02E46A1F5C857B3793688B61A761E67
:100F3000633F23D0A1F5D047043F3AD0012B4DD0D9
:100F40004DE0FFF70BFD304639E0FFF707FD304677
:100F5000FFF710FD6889401C80B2FFF7FFFCD0B29C
:100F6000FFF708FDA889FFF7F9FC6046FFF702FDCF
:100F7000A889401C80B2FFF7F1FC2BE003B9B2B2A4
:100F8000FFF7ECFC160A3046FFF7F4FCD0B2FFF78F
:100F9000F1FC3046FFF7EEFCD0B2FFF7EBFCA8897E
:100FA000FFF7DCFC6046FFF7E5FCE0B2FFF7E2FC90
:100FB0000DE0012B00D1B2B2FFF7D0FC100AFFF711
:100FC000D9FCD0B2FFF7D6FCA889FFF7C7FC604672
:100FD000FFF7D0FCE0B2FFF7CDFC07E0B2B211465C
:100FE000FFF7DEFCA8892146FFF7DAFC4FF0D84076
:100FF0002989A0F87E10A0F88080BDE8F08110B5A6
:101000000246BE20FFF7AAFC0520FFF7B3FC1046FE
:1010100011F059F99FEDB41B53EC112B11F066F947
:1010200011F024F980B2FFF7A5FC0120FFF7A2FC24
:10103000FF20FFF79FFC0020FFF79CFCBDE810405D
:10104000002097E42DE9F04FA6492A232B24898814
:1010500045F2105A4FF4305B4FF4285E4FF4487558
:101060004FF0F00C49F241394FF4A07745F21036B9
:101070004FF4F07280B19B484FF00108494580F869
:1010800006800780A0F802C001D0B1423ED12C25D5
:1010900005814381848157E092484FF0000849451B
:1010A00080F80680A0F800C0478006D0A1F5D04C9B
:1010B000BCF1040C01D0B1420CD12C250581438137
:1010C000A1F5D0438481043B01D0B14244D10780D3
:1010D000428041E0514507D1A0F808B0A0F80AE0ED
:1010E0004FF42C5181810EE0A1F5C856633E06D025
:1010F0002221018120214181212181812CE02C218B
:101100000181448183810280458025E0A1F5D04C96
:10111000BCF1040C09D051450BD1A0F808B0A0F8DF
:101120000AE04FF42C53838120E02C250581448173
:1011300009E0A1F5C85CBCF1630C11D02223038146
:101140002123438120238381A1F5D043043B01D097
:10115000B14201D102804780BDE8F04F0020BDE5DB
:101160004FF02C0CA0F808C0438184810580428098
:10117000EAE72DE9FE4F0446104401EB0308DFF8CF
:101180006491401EA8F1010887B2B9F80400C8F3C1
:10119000072302930B0A0093A3185B1EC3F30723D4
:1011A00001934B460D465B89A0F513411FFA88F663
:1011B0004FEA142B413910D0A0F5A64110390CD0BC
:1011C000A0F5D041043908D099F806A041F6631C77
:1011D000BAF1010F1ED160451CD14A461846FFF7EF
:1011E000BDFB5846FFF7C6FBE0B2FFF7C3FB019813
:1011F000FFF7C0FBF8B2FFF7BDFB9089FFF7AEFB2E
:101200000098FFF7B7FBE8B2FFF7B4FB0298FFF7CF
:10121000B1FB95E033496045098825D1881A001B48
:1012200084B24E461FFA88F71846FFF797FB200A4C
:10123000FFF7A0FBE0B2FFF79DFB2244521EC2F372
:101240000F20FFF797FBD0B2FFF794FBB089FFF7B1
:1012500085FB0098FFF78EFBE8B2FFF78BFB380A9F
:10126000FFF788FBF8B26CE0A0F5A04C4A46BCF54D
:10127000A26C23D0BAF1010F67D0BC4620462F469E
:10128000502201464FF0510A4FF052094FF05308D7
:101290001046FFF785FB61465046FFF781FB394654
:1012A0004846FFF77DFB31464046FFF779FB03B028
:1012B00029462046BDE8F04FFFF7A1BB1846FFF7CF
:1012C0004DFB5846FFF756FB5089401C80B2FFF794
:1012D00045FBE0B2FFF74EFB5089801C80B207E06F
:1012E000160000207002002066666666666604408E
:1012F000FFF734FB0198FFF73DFB5089C01C80B21B
:10130000FFF72CFBF8B2FFF735FB9089FFF726FBC0
:101310000098FFF72FFB9089401C80B2FFF71EFB5F
:10132000E8B2FFF727FB9089801C80B2FFF716FB1D
:101330000298FFF71FFB9089C01C80B2FFF70EFBDD
:10134000F0B2BDE8FE4FFFF715BBCA1B521E091BCA
:10135000B446491E284697B28EB291E72DE9F04374
:10136000FF4F0646002438887D884543B888A0F59D
:10137000D041043902D1B879012808D000210846AB
:10138000FFF73DFBFFF722FB4FF0D84016E00020AF
:10139000B8714FF02A09A7F80A904FF02B08A7F868
:1013A0000C800146FFF72BFB0120B871A7F80A80DB
:1013B000A7F80C90E6E7A0F88060641CAC42FAD372
:1013C000BDE8F0832DE9F04FA1B0002401217A207F
:1013D0001F9404F070FB0121084604F080FB0120FB
:1013E0008DF804008DF8064002208DF805000120DC
:1013F0004FF4004B8DF80700CDF800B06946D9488E
:1014000004F056F94CF23370009002208DF804007D
:101410008DF8064003208DF8050001208DF80700A7
:101420006946D14804F044F94FF6807000900220DC
:101430008DF804008DF8064003208DF8050001208A
:10144000CA4D8DF807006946284604F031F9A81402
:10145000009002208DF804008DF8064003208DF8DE
:1014600005000120C24E8DF807006946304604F0A1
:101470001FF9A814009002208DF804008DF8064092
:1014800003208DF805000120BA4F8DF8070069464A
:10149000384604F00DF90C220021B34804F07CF921
:1014A0000C220121B04804F077F90C220421AE4847
:1014B00004F072F90C220521AB4804F06DF90C22FE
:1014C0000821A94804F068F90C220921A64804F073
:1014D00063F90C220A21A44804F05EF90C220E21C3
:1014E000A14804F059F90C220F219F4804F054F947
:1014F0000C220721284604F04FF90C220821284627
:1015000004F04AF90C220921284604F045F90C227E
:101510000A21284604F040F90C220B21284604F049
:101520003BF90C221146284604F036F90C220D2115
:10153000284604F031F90C220E21284604F02CF93B
:101540000C220F21284604F027F90C2211463046C0
:1015500004F022F90C221146384604F01DF90F2040
:10156000CDE911043C20CDE913041594092016940B
:10157000CDE917400820CDE919401B941C940620A2
:10158000CDE902041D941E941020CDE90440069478
:101590000002CDE90A40089407948000CDE90C4090
:1015A000099411A8CDE90E4018A8109002A805F0E2
:1015B00094FF0121062006F025F8322006F0F9F903
:1015C00001210020FFF7ECF9322006F0F2F90020AB
:1015D000FFF7F1F9624A4FF020494FF6FF7A908009
:1015E00049F2413545F2103645F2105441F6631781
:1015F00046F60408FF2804D3504502D0B0F5134F37
:1016000075D1D320FFF7AAF9FFF7C0F99080FFF753
:10161000BDF99080FFF7BAF90AEA0020D44690801D
:10162000FFF7B4F9918808439080A8425FD0BF20AB
:10163000FFF794F9FFF7AAF99080FFF7A7F99080D8
:10164000FFF7A4F99080FFF7A1F90CEA0020908041
:10165000FFF79CF9918808439080404547D0D420FB
:10166000FFF77CF9FFF792F99080FFF78FF99080F0
:10167000FFF78CF90CEA00209080FFF787F991883A
:1016800008439080B04232D04FF45A40FFF766F9D9
:10169000FFF77CF990804FF45B40FFF75FF9FFF7AD
:1016A00075F90CEA002090804FF45C40FFF756F982
:1016B000FFF76CF9918808439080584501D19480D8
:1016C0001EE0A04213D0A120FFF748F9FFF75EF912
:1016D0009080FFF75BF90CEA00209080FFF756F945
:1016E00091880843A0F5AE419080613920D080B246
:1016F000A84205D0B04203D0A04201D0B84219D1CF
:10170000D9F81C11484621F00F01C9F81C11D9F86D
:101710001C1121F47061C9F81C11D9F81C1141F099
:101720000301C9F81C11D9F81C1141F400712BE018
:101730009780E5E7404503D0A0F54541053925D11F
:10174000D9F81C11484621F00F01C9F81C11D9F82D
:101750001C1121F47061C9F81C11D9F81C110BE09F
:101760007002002000040240000C02400010024001
:10177000001402400018024041F00A01C9F81C118F
:10178000D9F81C1141F44061C0F81C1191469188B0
:10179000FEA010F0E5F9B9F80400A8427ED1CF20F0
:1017A000FFF7DCF80020FFF7E5F81F98401C1F90BA
:1017B000C120FFF7DFF83020FFF7DCF8ED20FFF75E
:1017C000CDF86420FFF7D6F80320FFF7D3F81220F6
:1017D000FFF7D0F88120FFF7CDF8E820FFF7BEF83B
:1017E0008520FFF7C7F81020FFF7C4F87A20FFF72D
:1017F000C1F8CB20FFF7B2F83920FFF7BBF82C2057
:10180000FFF7B8F80020FFF7B5F83420FFF7B2F87B
:101810000220FFF7AFF8F720FFF7A0F82020FFF72E
:10182000A9F8EA20FFF79AF80020FFF7A3F80020B4
:10183000FFF7A0F8C020FFF791F81B20FFF79AF8F8
:10184000C120FFF78BF80120FFF794F8C520FFF7C0
:1018500085F83020FFF78EF83020FFF78BF8C7208F
:10186000FFF77CF8B720FFF785F83620FFF776F80A
:101870004820FFF77FF83A20FFF770F85520FFF770
:1018800079F8B120FFF76AF80020FFF773F81A2003
:10189000FFF770F8B620FFF761F800E093E00A2048
:1018A000FFF768F8A220FFF765F8F220FFF756F877
:1018B0000020FFF75FF82620FFF750F80120FFF720
:1018C00059F8E020FFF74AF80F20FFF753F82A20D5
:1018D000FFF750F82820FFF74DF80820FFF74AF8E7
:1018E0000E20FFF747F80820FFF744F85420FFF7D1
:1018F00041F8A920FFF73EF84320FFF73BF80A2004
:10190000FFF738F80F20FFF735F80020FFF732F81F
:101910000020FFF72FF80020FFF72CF80020FFF73A
:1019200029F8E120FFF71AF80020FFF723F8152027
:10193000FFF720F81720FFF71DF80720FFF71AF828
:101940001120FFF717F80620FFF714F82B20FFF7F8
:1019500011F85620FFF70EF83C20FFF70BF8052092
:10196000FFF708F81020FFF705F80F20FFF702F83F
:101970003F20FEF7FFFF3F20FEF7FCFF0F20FEF7A2
:10198000F9FF2B20FEF7EAFF0020FEF7F3FF00200F
:10199000FEF7F0FF0120FEF7EDFF3F20FEF7EAFF24
:1019A0002A20FEF7DBFF0020FEF7E4FF0020FEF711
:1019B000E1FF0020FEF7DEFFEF20FEF7DBFF112046
:1019C000FEF7CCFFA5E040457ED11120FEF7C6FF13
:1019D000142005F0EEFFD020FEF7C0FF0720FEF731
:1019E000C9FF4220FEF7C6FF1D20FEF7C3FFD1202E
:1019F000FEF7B4FF0020FEF7BDFF1A20FEF7BAFF86
:101A00000920FEF7B7FFD220FEF7A8FF0120FEF75E
:101A1000B1FF2220FEF7AEFFC020FEF79FFF10208F
:101A2000FEF7A8FF3B20FEF7A5FF0020FEF7A2FF70
:101A30000220FEF79FFF1120FEF79CFFC520FEF756
:101A40008DFF0320FEF796FFC820FEF787FF0020DA
:101A5000FEF790FF2520FEF78DFF2120FEF78AFF7D
:101A60000520FEF787FF0020FEF784FF0A20FEF71F
:101A700081FF6520FEF77EFF2520FEF77BFF7720A4
:101A8000FEF778FF5020FEF775FF0F20FEF772FF7C
:101A90000020FEF76FFFF820FEF760FF0120FEF741
:101AA00069FFFE20FEF75AFF0020FEF763FF0220C9
:101AB000FEF760FF2020FEF751FF3620FEF74EFFB5
:101AC0000820FEF757FF00E029E03A20FEF746FF26
:101AD0005520FEF74FFF2B20FEF740FF0020FEF7BA
:101AE00049FF0020FEF746FF0120FEF743FF3F209D
:101AF000FEF740FF2A20FEF731FF0020FEF73AFFF5
:101B00000020FEF737FF0120FEF734FFDF20FEF74D
:101B100031FF782005F04DFF292001F002BFB042CF
:101B20007DD1ED20FEF71AFF0120FEF723FFFE20F6
:101B3000FEF720FFEE20FEF711FFDE20FEF71AFF72
:101B40002120FEF717FFF120FEF708FF0120FEF726
:101B500011FFDF20FEF702FF1020FEF70BFFC4206D
:101B6000FEF7FCFE8F20FEF705FFC620FEF7F6FE0F
:101B70000020FEF7FFFEE220FEF7FCFEE220FEF76B
:101B8000F9FEE220FEF7F6FEBF2005E04C434420BC
:101B900049443A25780D0A00FEF7E0FEAA20FEF738
:101BA000E9FEB020FEF7DAFE0D20FEF7E3FE00208E
:101BB000FEF7E0FE0D20FEF7DDFE0020FEF7DAFE68
:101BC0001120FEF7D7FE0020FEF7D4FE1920FEF705
:101BD000D1FE0020FEF7CEFE2120FEF7CBFE002036
:101BE000FEF7C8FE2D20FEF7C5FE0020FEF7C2FE60
:101BF0003D20FEF7BFFE0020FEF7BCFE5D20FEF795
:101C0000B9FE0020FEF7B6FE5D20FEF7B3FE002011
:101C1000FEF7B0FEB120FEF7A1FE802000E0FCE35D
:101C2000FEF7A8FE0020FEF7A5FE8B20FEF7A2FE21
:101C30000020FEF79FFE9620FEF79CFE0020FEF798
:101C400099FEB220FEF78AFE0020FEF793FE0020E8
:101C5000FEF790FE0220FEF78DFE0020FEF78AFEC2
:101C60000320FEF787FE0020FEF784FEB320FEF778
:101C700075FE0020FEF77EFE0020FEF77BFE0020B2
:101C8000FEF778FE0020FEF775FE0020FEF772FEDC
:101C90000020FEF76FFE0020FEF76CFE0020FEF72E
:101CA00069FE0020FEF766FE0020FEF763FE0020BE
:101CB000FEF760FE0020FEF75DFE0020FEF75AFEF4
:101CC0000020FEF757FE0020FEF754FE0020FEF72E
:101CD00051FE0020FEF74EFE0020FEF74BFE0020D6
:101CE000FEF748FE0020FEF745FE0020FEF742FE0C
:101CF0000020FEF73FFE0020FEF73CFE0020FEF72E
:101D000039FEB420FEF72AFE8B20FEF733FE0020BA
:101D1000FEF730FE9620FEF72DFE0020FEF72AFE8D
:101D2000A120FEF727FE0020FEF724FEB520FEF7D7
:101D300015FE0220FEF71EFE0020FEF71BFE03200C
:101D4000FEF718FE0020FEF715FE0420FEF712FE37
:101D50000020FEF70FFEB620FEF700FE0020FEF783
:101D600009FE0020FEF706FEB720FEF7F7FD002073
:101D7000FEF700FE0020FEF7FDFD3F20FEF7FAFD16
:101D80000020FEF7F7FD5E20FEF7F4FD0020FEF7D1
:101D9000F1FD6420FEF7EEFD0020FEF7EBFD8C2048
:101DA000FEF7E8FD0020FEF7E5FDAC20FEF7E2FDC2
:101DB0000020FEF7DFFDDC20FEF7DCFD0020FEF753
:101DC000D9FD7020FEF7D6FD0020FEF7D3FD902050
:101DD000FEF7D0FD0020FEF7CDFDEB20FEF7CAFD9B
:101DE0000020FEF7C7FDDC20FEF7C4FD0020FEF753
:101DF000C1FDB820FEF7B2FD0020FEF7BBFD0020BC
:101E0000FEF7B8FD0020FEF7B5FD0020FEF7B2FD9D
:101E10000020FEF7AFFD0020FEF7ACFD0020FEF72E
:101E2000A9FD0020FEF7A6FDBA20FEF797FD2420AD
:101E3000FEF7A0FD0020FEF79DFD0020FEF79AFDB5
:101E40000020FEF797FDC120FEF788FD2020FEF759
:101E500091FD0020FEF78EFD5420FEF78BFD002043
:101E6000FEF788FDFF20FEF785FD0020FEF782FDCE
:101E7000C220FEF773FD0A20FEF77CFD0020FEF76E
:101E800079FD0420FEF776FD0020FEF773FDC320E8
:101E9000FEF764FD3C20FEF76DFD0020FEF76AFDB5
:101EA0003A20FEF767FD0020FEF764FD3920FEF7BB
:101EB00061FD0020FEF75EFD3720FEF75BFD002090
:101EC000FEF758FD3C20FEF755FD0020FEF752FDC1
:101ED0003620FEF74FFD0020FEF74CFD3220FEF7C6
:101EE00049FD0020FEF746FD2F20FEF743FD0020B0
:101EF000FEF740FD2C20FEF73DFD0020FEF73AFDE9
:101F00002920FEF737FD0020FEF734FD2620FEF7DE
:101F100031FD0020FEF72EFD2420FEF72BFD0020D2
:101F2000FEF728FD2420FEF725FD0020FEF722FD08
:101F30002320FEF71FFD0020FEF71CFD3C20FEF7CE
:101F400019FD0020FEF716FD3620FEF713FD0020D8
:101F5000FEF710FD3220FEF70DFD0020FEF70AFD12
:101F60002F20FEF707FD0020FEF704FD2C20FEF7D2
:101F700001FD0020FEF7FEFC2920FEF7FBFC0020FF
:101F8000FEF7F8FC2620FEF7F5FC0020FEF7F2FC39
:101F90002420FEF7EFFC0020FEF7ECFC2420FEF7E7
:101FA000E9FC0020FEF7E6FC2320FEF7E3FC00201E
:101FB000FEF7E0FCC420FEF7D1FC6220FEF7DAFC5D
:101FC0000020FEF7D7FC0520FEF7D4FC0020FEF72A
:101FD000D1FC8420FEF7CEFC0020FEF7CBFCF020E5
:101FE000FEF7C8FC0020FEF7C5FC1820FEF7C2FC77
:101FF0000020FEF7BFFCA420FEF7BCFC0020FEF78B
:10200000B9FC1820FEF7B6FC0020FEF7B3FC502008
:10201000FEF7B0FC0020FEF7ADFC0C20FEF7AAFC9A
:102020000020FEF7A7FC1720FEF7A4FC0020FEF717
:10203000A1FC9520FEF79EFC0020FEF79BFCF32000
:10204000FEF798FC0020FEF795FCE620FEF792FCD8
:102050000020FEF78FFCC520FEF780FC3220FEF743
:1020600089FC0020FEF786FC4420FEF783FC00205C
:10207000FEF780FC6520FEF77DFC0020FEF77AFC71
:102080007620FEF777FC0020FEF774FC8820FEF730
:1020900071FC0020FEF76EFCC620FEF75FFC2020DE
:1020A000FEF768FC0020FEF765FC1720FEF762FCD7
:1020B0000020FEF75FFC0120FEF75CFC0020FEF72D
:1020C00059FCC720FEF74AFC0020FEF753FC002015
:1020D000FEF750FC0020FEF74DFC0020FEF74AFC06
:1020E000C820FEF73BFC0020FEF744FC0020FEF772
:1020F00041FC0020FEF73EFC0020FEF73BFCC9201F
:10210000FEF72CFC0020FEF735FC0020FEF732FC29
:102110000020FEF72FFC0020FEF72CFC0020FEF72D
:1021200029FC0020FEF726FC0020FEF723FC0020FF
:10213000FEF720FC0020FEF71DFC0020FEF71AFC35
:102140000020FEF717FC0020FEF714FC0020FEF72D
:1021500011FC0020FEF70EFC0020FEF70BFC002017
:10216000FEF708FCE020FEF7F9FB1620FEF702FC64
:102170000020FEF7FFFB1C20FEF7FCFB0020FEF713
:10218000F9FB2120FEF7F6FB0020FEF7F3FB3620DB
:10219000FEF7F0FB0020FEF7EDFB4620FEF7EAFB22
:1021A0000020FEF7E7FB5220FEF7E4FB0020FEF7DD
:1021B000E1FB6420FEF7DEFB0020FEF7DBFB7A206C
:1021C000FEF7D8FB0020FEF7D5FB8B20FEF7D2FBF5
:1021D0000020FEF7CFFB9920FEF7CCFB0020FEF796
:1021E000C9FBA820FEF7C6FB0020FEF7C3FBB92001
:1021F000FEF7C0FB0020FEF7BDFBC420FEF7BAFBD4
:102200000020FEF7B7FBCA20FEF7B4FB0020FEF764
:10221000B1FBD220FEF7AEFB0020FEF7ABFBD920CE
:10222000FEF7A8FB0020FEF7A5FBE020FEF7A2FBCF
:102230000020FEF79FFBF320FEF79CFB0020FEF73B
:1022400099FBE120FEF78AFB1620FEF793FB0020A6
:10225000FEF790FB1C20FEF78DFB0020FEF78AFBAB
:102260002220FEF787FB0020FEF784FB3620FEF7D6
:1022700081FB0020FEF77EFB4520FEF77BFB002064
:10228000FEF778FB5220FEF775FB0020FEF772FB8D
:102290006420FEF76FFB0020FEF76CFB7A20FEF750
:1022A00069FB0020FEF766FB8B20FEF763FB002036
:1022B000FEF760FB9920FEF75DFB0020FEF75AFB5E
:1022C000A820FEF757FB0020FEF754FBB920FEF7CD
:1022D00051FB0020FEF74EFBC420FEF74BFB002015
:1022E000FEF748FBCA20FEF745FB0020FEF742FB45
:1022F000D220FEF73FFB0020FEF73CFBD820FEF784
:1023000039FB0020FEF736FBE020FEF733FB002010
:10231000FEF730FBF320FEF72DFB0020FEF72AFB33
:10232000E220FEF71BFB0520FEF724FB0020FEF752
:1023300021FB0B20FEF71EFB0020FEF71BFB1B20E2
:10234000FEF718FB0020FEF715FB3420FEF712FB0A
:102350000020FEF70FFB4420FEF70CFB0020FEF7E9
:1023600009FB4F20FEF706FB0020FEF703FB612070
:10237000FEF700FB0020FEF7FDFA7920FEF7FAFADF
:102380000020FEF7F7FA8820FEF7F4FA0020FEF7A7
:10239000F1FA9720FEF7EEFA0020FEF7EBFAA620FE
:1023A000FEF7E8FA0020FEF7E5FAB720FEF7E2FABA
:1023B0000020FEF7DFFAC220FEF7DCFA0020FEF76D
:1023C000D9FAC720FEF7D6FA0020FEF7D3FAD120BB
:1023D000FEF7D0FA0020FEF7CDFAD620FEF7CAFAB3
:1023E0000020FEF7C7FADD20FEF7C4FA0020FEF752
:1023F000C1FAF320FEF7BEFA0020FEF7BBFAE32095
:10240000FEF7ACFA0520FEF7B5FA0020FEF7B2FAA7
:102410000A20FEF7AFFA002000E003E3FEF7AAFA75
:102420001C20FEF7A7FA0020FEF7A4FA3320FEF7DF
:10243000A1FA0020FEF79EFA4420FEF79BFA002046
:10244000FEF798FA5020FEF795FA0020FEF792FA70
:102450006220FEF78FFA0020FEF78CFA7820FEF754
:1024600089FA0020FEF786FA8820FEF783FA00201A
:10247000FEF780FA9720FEF77DFA0020FEF77AFA41
:10248000A620FEF777FA0020FEF774FAB720FEF7D1
:1024900071FA0020FEF76EFAC220FEF76BFA0020F8
:1024A000FEF768FAC720FEF765FA0020FEF762FA29
:1024B000D120FEF75FFA0020FEF75CFAD520FEF788
:1024C00059FA0020FEF756FADD20FEF753FA0020F5
:1024D000FEF750FAF320FEF74DFA0020FEF74AFA15
:1024E000E420FEF73BFA0120FEF744FA0020FEF755
:1024F00041FA0120FEF73EFA0020FEF73BFA0220E7
:10250000FEF738FA0020FEF735FA2A20FEF732FAF5
:102510000020FEF72FFA3C20FEF72CFA0020FEF7F1
:1025200029FA4B20FEF726FA0020FEF723FA5D2059
:10253000FEF720FA0020FEF71DFA7420FEF71AFAC3
:102540000020FEF717FA8420FEF714FA0020FEF7A9
:1025500011FA9320FEF70EFA0020FEF70BFAA220E4
:10256000FEF708FA0020FEF705FAB320FEF702FA9C
:102570000020FEF7FFF9BE20FEF7FCF90020FEF771
:10258000F9F9C420FEF7F6F90020FEF7F3F9CD20A3
:10259000FEF7F0F90020FEF7EDF9D320FEF7EAF997
:1025A0000020FEF7E7F9DD20FEF7E4F90020FEF752
:1025B000E1F9F320FEF7DEF90020FEF7DBF9E52074
:1025C000FEF7CCF90020FEF7D5F90020FEF7D2F98E
:1025D0000020FEF7CFF90020FEF7CCF90220FEF72D
:1025E000C9F90020FEF7C6F92920FEF7C3F900203B
:1025F000FEF7C0F93C20FEF7BDF90020FEF7BAF95E
:102600004B20FEF7B7F90020FEF7B4F95D20FEF786
:10261000B1F90020FEF7AEF97420FEF7ABF9002007
:10262000FEF7A8F98420FEF7A5F90020FEF7A2F92D
:102630009320FEF79FF90020FEF79CF9A220FEF7F9
:1026400099F90020FEF796F9B320FEF793F90020E0
:10265000FEF790F9BE20FEF78DF90020FEF78AF90B
:10266000C420FEF787F90020FEF784F9CD20FEF79D
:1026700081F90020FEF77EF9D320FEF77BF90020D8
:10268000FEF778F9DC20FEF775F90020FEF772F905
:10269000F320FEF76FF90020FEF76CF9E620FEF755
:1026A0005DF91120FEF766F90020FEF763F934208A
:1026B000FEF760F90020FEF75DF95620FEF75AF9A3
:1026C0000020FEF757F97620FEF754F90020FEF7B8
:1026D00051F97720FEF74EF90020FEF74BF96620FE
:1026E000FEF748F90020FEF745F98820FEF742F989
:1026F0000020FEF73FF99920FEF73CF90020FEF795
:1027000039F9BB20FEF736F90020FEF733F999209E
:10271000FEF730F90020FEF72DF96620FEF72AF9C2
:102720000020FEF727F95520FEF724F90020FEF7D8
:1027300021F95520FEF71EF90020FEF71BF9452070
:10274000FEF718F90020FEF715F94320FEF712F9FD
:102750000020FEF70FF94420FEF70CF90020FEF7E9
:1027600009F9E720FEF7FAF83220FEF703F9002016
:10277000FEF700F95520FEF7FDF80020FEF7FAF805
:102780007620FEF7F7F80020FEF7F4F86620FEF753
:10279000F1F80020FEF7EEF86720FEF7EBF80020D6
:1027A000FEF7E8F86720FEF7E5F80020FEF7E2F80C
:1027B0008720FEF7DFF80020FEF7DCF89920FEF70F
:1027C000D9F80020FEF7D6F8BB20FEF7D3F800209A
:1027D000FEF7D0F89920FEF7CDF80020FEF7CAF8F2
:1027E0007720FEF7C7F80020FEF7C4F84420FEF774
:1027F000C1F80020FEF7BEF85620FEF7BBF8002017
:10280000FEF7B8F82320FEF7B5F80020FEF7B2F87F
:102810003320FEF7AFF80020FEF7ACF84520FEF7B6
:10282000A9F80020FEF7A6F8E820FEF797F80020A8
:10283000FEF7A0F80020FEF79DF89920FEF79AF821
:102840000020FEF797F88720FEF794F80020FEF7A7
:1028500091F88820FEF78EF80020FEF78BF877209D
:10286000FEF788F80020FEF785F86620FEF782F86C
:102870000020FEF77FF88820FEF77CF80020FEF7A6
:1028800079F8AA20FEF776F80020FEF773F8BB204F
:10289000FEF770F80020FEF76DF89920FEF76AF851
:1028A0000020FEF767F86620FEF764F80020FEF7C8
:1028B00061F85520FEF75EF80020FEF75BF8552022
:1028C000FEF758F80020FEF755F84420FEF752F8BE
:1028D0000020FEF74FF84420FEF74CF80020FEF7EA
:1028E00049F85520FEF746F80020FEF743F8E920A6
:1028F000FEF734F8AA20FEF73DF80020FEF73AF87C
:102900000020FEF737F80020FEF734F80020FEF72D
:1029100025F8AA20FEF72EF8CF20FEF71FF800209A
:10292000FEF728F80020FEF725F80020FEF722F831
:102930000020FEF71FF80020FEF71CF80020FEF72D
:1029400019F80020FEF716F80020FEF713F8002013
:10295000FEF710F80020FEF70DF80020FEF70AF849
:102960000020FEF707F80020FEF704F80020FEF72D
:1029700001F80020FDF7FEFF0020FDF7FBFF00201F
:10298000FDF7F8FFF020FDF7E9FF0020FDF7F2FF6B
:102990005020FDF7EFFF0020FDF7ECFF0020FDF7D2
:1029A000E9FF0020FDF7E6FFF320FDF7D7FF002049
:1029B000FDF7E0FFF920FDF7D1FF0620FDF7DAFF74
:1029C0001020FDF7D7FF2920FDF7D4FF0020FDF7E9
:1029D000D1FF3A20FDF7C2FF5520FDF7CBFF1120B4
:1029E000FDF7BCFF642004F0E4FF2920FDF7B6FFEB
:1029F0003520FDF7B3FF0020FDF7BCFF5120FDF7A8
:102A0000ADFFFF20FDF7B6FF5320FDF7A7FF2C20F9
:102A1000FDF7B0FF5520FDF7A1FF8220FDF7AAFFCB
:102A20002C20FCE3A0427DD14FF470445521204678
:102A3000FDF7B6FF651CAA212846FDF7B1FFA61CCD
:102A400052213046FDF7ACFFE71C08213846FDF760
:102A5000A7FF4FF2040C01216046FDF7A1FF0D21F5
:102A60004FF43040FDF79CFF0D214BF20100FDF7C4
:102A700097FF0D214BF20200FDF792FF4FF436480D
:102A800034214046FDF78CFF34214BF20160FDF705
:102A900087FF34214BF20260FDF782FF4FF431498A
:102AA0000D214846FDF77CFF4BF2011B0D215846D6
:102AB000FDF776FF0D214BF20210FDF771FF342177
:102AC0004FF43740FDF76CFF34214BF20170FDF7F6
:102AD00067FF34214BF20270FDF762FF00214FF4D3
:102AE0003240FDF75DFF00214BF20120FDF758FF5A
:102AF00000214BF20220FDF753FF24214FF4384010
:102B0000FDF74EFF24214BF60100FDF749FF24217C
:102B10004BF60200FDF744FF01214FF43F40FDF763
:102B20003FFF00E0FEE30F214FF43340FDF738FF95
:102B30000F214BF20130FDF733FF0F214BF2023032
:102B4000FDF72EFF34214FF43940FDF729FF3421E2
:102B50004BF60110FDF724FF34214BF60210FDF770
:102B60001FFF08214FF43540FDF71AFF08214BF2F3
:102B70000150FDF715FF08214BF20250FDF710FF41
:102B800003214FF44240FDF70BFF24214FF43A405C
:102B9000FDF706FF24214BF60120FDF701FF24215C
:102BA0004BF60220FDF7FCFE00214FF43C40FDF700
:102BB000F7FE78214BF60140FDF7F2FE00214BF6BF
:102BC0000240FDF7EDFE00214FF43D40FDF7E8FE29
:102BD00078214BF60150FDF7E3FE00214BF6025041
:102BE000FDF7DEFE00214FF43E40FDF7D9FE6421E3
:102BF0004BF60160FDF7D4FE00214FF45140FDF784
:102C0000CFFE33214DF20110FDF7CAFE00214DF237
:102C10000210FDF7C5FE34214DF20310FDF7C0FE92
:102C200000214DF20410FDF7BBFE3A214DF20510D4
:102C3000FDF7B6FE00214DF20610FDF7B1FE4A2168
:102C40004DF20710FDF7ACFE00214DF20810FDF724
:102C5000A7FE5C214DF20910FDF7A2FE00214DF206
:102C60000A10FDF79DFE81214DF20B10FDF798FE35
:102C700000214DF20C10FDF793FEA6214DF20D1030
:102C8000FDF78EFE00214DF20E10FDF789FEE521C5
:102C90004DF20F10FDF784FE01214DF21010FDF7EB
:102CA0007FFE13214DF21110FDF77AFE01214DF246
:102CB0001210FDF775FE54214DF21310FDF770FE52
:102CC00001214DF21410FDF76BFE82214DF215101B
:102CD000FDF766FE01214DF21610FDF761FECA21D7
:102CE0004DF21710FDF75CFE02214DF21810FDF7B2
:102CF00057FE00214DF21910FDF752FE02214DF250
:102D00001A10FDF74DFE01214DF21B10FDF748FE94
:102D100002214DF21C10FDF743FE34214DF21D102F
:102D2000FDF73EFE02214DF21E10FDF739FE672130
:102D30004DF21F10FDF734FE02214DF22010FDF779
:102D40002FFE84214DF22110FDF72AFE02214DF2C3
:102D50002210FDF725FEA4214DF22310FDF720FEE1
:102D600002214DF22410FDF71BFEB7214DF2251074
:102D7000FDF716FE02214DF22610FDF711FECF21C0
:102D80004DF22710FDF70CFE02214DF22810FDF741
:102D900007FEDE214DF22910FDF702FE02214DF261
:102DA0002A10FDF7FDFDF2214DF22B10FDF7F8FD85
:102DB00002214DF22C10FDF7F3FDFE214DF22D10F6
:102DC000FDF7EEFD03214DF22E10FDF7E9FD102178
:102DD0004DF22F10FDF7E4FD03214DF23010FDF709
:102DE000DFFD33214DF23110FDF7DAFD03214DF205
:102DF0003210FDF7D5FD6D214DF23310FDF7D0FDFA
:102E000000214FF45240FDF7CBFD33214DF201205C
:102E1000FDF7C6FD00214DF20220FDF7C1FD342172
:102E20004DF20320FDF7BCFD00214DF20420FDF71B
:102E3000B7FD3A214DF20520FDF7B2FD00214DF21C
:102E40000620FDF7ADFD4A214DF20720FDF7A8FD54
:102E500000214DF20820FDF7A3FD5C214DF2092071
:102E6000FDF79EFD00214DF20A20FDF799FD81211D
:102E70004DF20B20FDF794FD00214DF20C20FDF7E3
:102E80008FFDA6214DF20D20FDF78AFD00214DF2A8
:102E90000E20FDF785FDE5214DF20F20FDF780FDA9
:102EA00001214DF21020FDF77BFD13214DF2112081
:102EB000FDF776FD01214DF21220FDF771FD542141
:102EC0004DF21320FDF76CFD01214DF21420FDF7AA
:102ED00067FD82214DF21520FDF762FD01214DF2C3
:102EE0001620FDF75DFDCA214DF21720FDF758FDB4
:102EF00002214DF21820FDF753FD00214DF219205B
:102F0000FDF74EFD02214DF21A20FDF749FD01218A
:102F10004DF21B20FDF744FD02214DF21C20FDF770
:102F20003FFD34214DF21D20FDF73AFD02214DF207
:102F30001E20FDF735FD67214DF21F20FDF730FD06
:102F400002214DF22020FDF72BFD84214DF221209E
:102F5000FDF726FD02214DF22220FDF721FDA421DF
:102F60004DF22320FDF71CFD02214DF22420FDF738
:102F700017FDB7214DF22520FDF712FD02214DF27C
:102F80002620FDF70DFDCF214DF22720FDF708FD8E
:102F900002214DF22820FDF703FDDE214DF229200C
:102FA000FDF7FEFC02214DF22A20FDF7F9FCF2218B
:102FB0004DF22B20FDF7F4FC02214DF22C20FDF701
:102FC000EFFCFE214DF22D20FDF7EAFC03214DF22E
:102FD0002E20FDF7E5FC10214DF22F20FDF7E0FC3F
:102FE00003214DF23020FDF7DBFC33214DF231207F
:102FF000FDF7D6FC03214DF23220FDF7D1FC6D2107
:103000004DF23320FDF7CCFC00214FF45340FDF787
:10301000C7FC33214DF20130FDF7C2FC00214DF217
:103020000230FDF7BDFC34214DF20330FDF7B8FC52
:1030300000214DF20430FDF7B3FC3A214DF205308A
:10304000FDF7AEFC00214DF20630FDF7A9FC4A2148
:103050004DF20730FDF7A4FC00214DF20830FDF7DA
:103060009FFC5C214DF20930FDF79AFC00214DF2E6
:103070000A30FDF795FC81214DF20B30FDF790FCF5
:1030800000214DF20C30FDF78BFCA6214DF20D30E6
:10309000FDF786FC00214DF20E30FDF781FCE521A5
:1030A0004DF20F30FDF77CFC01214DF21030FDF7A1
:1030B00077FC13214DF21130FDF772FC01214DF226
:1030C0001230FDF76DFC54214DF21330FDF768FC12
:1030D00001214DF21430FDF763FC82214DF21530D1
:1030E000FDF75EFC01214DF21630FDF759FCCA21B7
:1030F0004DF21730FDF754FC02214DF21830FDF768
:103100004FFC00214DF21930FDF74AFC02214DF22F
:103110001A30FDF745FC01214DF21B30FDF740FC54
:1031200002214DF21C30FDF73BFC34214DF21D30E5
:10313000FDF736FC02214DF21E30FDF731FC672110
:103140004DF21F30FDF72CFC02214DF22030FDF72F
:1031500027FC84214DF22130FDF722FC02214DF2A3
:103160002230FDF71DFCA4214DF22330FDF718FCA1
:1031700002214DF22430FDF713FCB7214DF225302A
:10318000FDF70EFC02214DF22630FDF709FCCF21A0
:103190004DF22730FDF704FC02214DF22830FDF7F7
:1031A000FFFBDE214DF22930FDF7FAFB02214DF243
:1031B0002A30FDF7F5FBF2214DF22B30FDF7F0FB45
:1031C00002214DF22C30FDF7EBFBFE214DF22D30AC
:1031D000FDF7E6FB03214DF22E30FDF7E1FB102158
:1031E0004DF22F30FDF7DCFB03214DF23030FDF7BF
:1031F000D7FB33214DF23130FDF7D2FB03214DF2E5
:103200003230FDF7CDFB6D214DF23330FDF7C8FBB9
:1032100000214FF45440FDF7C3FB332100E080E36D
:103220004DF20140FDF7BCFB00214DF20240FDF7DD
:10323000B7FB34214DF20340FDF7B2FB00214DF204
:103240000440FDF7ADFB3A214DF20540FDF7A8FB28
:1032500000214DF20640FDF7A3FB4A214DF2074045
:10326000FDF79EFB00214DF20840FDF799FB5C2124
:103270004DF20940FDF794FB00214DF20A40FDF7A5
:103280008FFB81214DF20B40FDF78AFB00214DF2AF
:103290000C40FDF785FBA6214DF20D40FDF780FBAC
:1032A00000214DF20E40FDF77BFBE5214DF20F4072
:1032B000FDF776FB01214DF21040FDF771FB132164
:1032C0004DF21140FDF76CFB01214DF21240FDF76C
:1032D00067FB54214DF21340FDF762FB01214DF2D3
:1032E0001440FDF75DFB82214DF21540FDF758FBC0
:1032F00001214DF21640FDF753FBCA214DF2174054
:10330000FDF74EFB02214DF21840FDF749FB00216D
:103310004DF21940FDF744FB02214DF21A40FDF732
:103320003FFB00E000E301214DF21B40FDF738FBBD
:1033300002214DF21C40FDF733FB34214DF21D40BC
:10334000FDF72EFB02214DF21E40FDF729FB672100
:103350004DF21F40FDF724FB02214DF22040FDF706
:103360001FFB84214DF22140FDF71AFB02214DF293
:103370002240FDF715FBA4214DF22340FDF710FB81
:1033800002214DF22440FDF70BFBB7214DF2254001
:10339000FDF706FB02214DF22640FDF701FBCF2190
:1033A0004DF22740FDF7FCFA02214DF22840FDF7CF
:1033B000F7FADE214DF22940FDF7F2FA02214DF233
:1033C0002A40FDF7EDFAF2214DF22B40FDF7E8FA25
:1033D00002214DF22C40FDF7E3FAFE214DF22D4083
:1033E000FDF7DEFA03214DF22E40FDF7D9FA102148
:1033F0004DF22F40FDF7D4FA03214DF23040FDF796
:10340000CFFA33214DF23140FDF7CAFA03214DF2D4
:103410003240FDF7C5FA6D214DF23340FDF7C0FA99
:1034200000214FF45540FDF7BBFA33214DF2015016
:10343000FDF7B6FA00214DF20250FDF7B1FA342142
:103440004DF20350FDF7ACFA00214DF20450FDF7A8
:10345000A7FA3A214DF20550FDF7A2FA00214DF2EC
:103460000650FDF79DFA4A214DF20750FDF798FAF4
:1034700000214DF20850FDF793FA5C214DF20950FE
:10348000FDF78EFA00214DF20A50FDF789FA8121ED
:103490004DF20B50FDF784FA00214DF20C50FDF770
:1034A0007FFAA6214DF20D50FDF77AFA00214DF278
:1034B0000E50FDF775FAE5214DF20F50FDF770FA49
:1034C00001214DF21050FDF76BFA13214DF211500E
:1034D000FDF766FA01214DF21250FDF761FA542111
:1034E0004DF21350FDF75CFA01214DF21450FDF737
:1034F00057FA82214DF21550FDF752FA01214DF293
:103500001650FDF74DFACA214DF21750FDF748FA53
:1035100002214DF21850FDF743FA00214DF21950E7
:10352000FDF73EFA02214DF21A50FDF739FA01215A
:103530004DF21B50FDF734FA02214DF21C50FDF7FD
:103540002FFA34214DF21D50FDF72AFA02214DF2D7
:103550001E50FDF725FA67214DF21F50FDF720FAA6
:1035600002214DF22050FDF71BFA84214DF221502B
:10357000FDF716FA02214DF22250FDF711FAA421AF
:103580004DF22350FDF70CFA02214DF22450FDF7C5
:1035900007FAB7214DF22550FDF702FA02214DF24C
:1035A0002650FDF7FDF9CF214DF22750FDF7F8F930
:1035B00002214DF22850FDF7F3F9DE214DF229509A
:1035C000FDF7EEF902214DF22A50FDF7E9F9F2215B
:1035D0004DF22B50FDF7E4F902214DF22C50FDF78E
:1035E000DFF9FE214DF22D50FDF7DAF903214DF2FE
:1035F0002E50FDF7D5F910214DF22F50FDF7D0F9DF
:1036000003214DF23050FDF7CBF933214DF231500B
:10361000FDF7C6F903214DF23250FDF7C1F96D21D6
:103620004DF23350FDF7BCF900214FF45640FDF741
:10363000B7F933214DF20160FDF7B2F900214DF2E7
:103640000260FDF7ADF934214DF20360FDF7A8F9F2
:1036500000214DF20460FDF7A3F93A214DF2056017
:10366000FDF79EF900214DF20660FDF799F94A2118
:103670004DF20760FDF794F900214DF20860FDF767
:103680008FF95C214DF20960FDF78AF900214DF2B6
:103690000A60FDF785F981214DF20B60FDF780F995
:1036A00000214DF20C60FDF77BF9A6214DF20D6073
:1036B000FDF776F900214DF20E60FDF771F9E52175
:1036C0004DF20F60FDF76CF901214DF21060FDF72E
:1036D00067F913214DF21160FDF762F901214DF2F6
:1036E0001260FDF75DF954214DF21360FDF758F9B2
:1036F00001214DF21460FDF753F982214DF215605E
:10370000FDF74EF901214DF21660FDF749F9CA2186
:103710004DF21760FDF744F902214DF21860FDF7F4
:103720003FF900214DF21960FDF73AF902214DF2FF
:103730001A60FDF735F901214DF21B60FDF730F9F4
:1037400002214DF21C60FDF72BF934214DF21D6072
:10375000FDF726F902214DF21E60FDF721F96721E0
:103760004DF21F60FDF71CF902214DF22060FDF7BC
:1037700017F984214DF22160FDF712F902214DF273
:103780002260FDF70DF9A4214DF22360FDF708F941
:1037900002214DF22460FDF703F9B7214DF22560B7
:1037A000FDF7FEF802214DF22660FDF7F9F8CF2172
:1037B0004DF22760FDF7F4F802214DF22860FDF785
:1037C000EFF8DE214DF22960FDF7EAF802214DF213
:1037D0002A60FDF7E5F8F2214DF22B60FDF7E0F8E5
:1037E00002214DF22C60FDF7DBF8FE214DF22D6039
:1037F000FDF7D6F803214DF22E60FDF7D1F8102128
:103800004DF22F60FDF7CCF803214DF23060FDF74B
:10381000C7F833214DF23160FDF7C2F803214DF2B4
:103820003260FDF7BDF86D214DF23360FDF7B8F859
:1038300055212046FDF7B4F8AA212846FDF7B0F837
:1038400052213046FDF7ACF808213846FDF7A8F8BC
:1038500000216046FDF7A4F8CC214846FDF7A0F80A
:1038600000215846FDF79CF805214046FDF798F8E1
:1038700070214FF43740FDF793F870214BF201703F
:10388000FDF78EF801214FF43840FDF789F8032148
:103890004BF60100FDF784F803214BF60200FDF71B
:1038A0007FF803214BF60300FDF77AF802214FF46D
:1038B0003C40FDF775F800214BF60140FDF770F82C
:1038C00000214BF60240FDF76BF8D0214FF4494040
:1038D000FDF766F802214CF60110FDF761F8502162
:1038E0004CF60210FDF75CF850214CF60310FDF782
:1038F00057F850214CF60410FDF752F800214FF410
:103900005450FDF74DF855214FF46850FDF748F835
:103910004FF48850FDF722F8782004F01CF84FF49B
:103920002450FDF71BF8F3E0A0F513414FF4807429
:103930004FF4E06940F2022B4FF4274625397CD042
:1039400040F20775C91E79D04FF488764FF41C58A1
:10395000083174D0113973D0A0F5A841083970D05E
:10396000A0F5A8514FF4407605396BD0B1F5204150
:1039700069D0B1F5805167D0A0F58A4131397CD04A
:10398000091F7BD0B842CED1E220FCF7E7FF1D2013
:10399000FCF7F0FF0220FCF7EDFF0420FCF7EAFF44
:1039A000642003F0D8FFE020FCF7D8FF0120FCF7EB
:1039B000E1FF0A2003F0FDFFE020FCF7CFFF03202A
:1039C000FCF7D8FF0C2003F0F4FF0120FCF7C6FF42
:1039D0000A2003F0EEFFE620FCF7C0FF2F20FCF7E3
:1039E000C9FFFF20FCF7C6FFFF20FCF7C3FFB02094
:1039F000FCF7B4FF2020FCF7BDFF0020FCF7BAFF66
:103A00000320FCF7B7FF40F21F30FCF7B3FF0120A3
:103A1000FCF7B0FF40F2DF10FCF7ACFF0020FCF732
:103A2000A9FFB420FCF79AFF0420FCF7A3FF40F2A3
:103A30001F40FCF79FFF002007E076E041E1FDE139
:103A4000A4E279E3FEE3FEE3FEE3FCF793FF2E201E
:103A5000FCF790FF1D20FCF78DFF0020FCF78AFF8C
:103A60000020FCF787FF0020FCF784FFB620FCF75E
:103A700075FF0220FCF77EFF01E0E6E3E6E34FF48A
:103A80000370FCF777FF0020FCF774FF1720FCF7AA
:103A900071FF1520FCF76EFF0020FCF76BFF002084
:103AA000FCF768FFF020FCF759FF0320FCF762FFEA
:103AB0002920FCF753FFD020FCF750FF0020FCF733
:103AC00059FFBE20FCF74AFF0520FCF753FFFE20FC
:103AD000FCF750FF0120FCF74DFF0020FCF74AFFE8
:103AE0000020FCF747FF0020FCF744FFB820FCF75C
:103AF00035FF0320FCF73EFF0120FCF73BFFBA2017
:103B0000FCF72CFF0120FCF735FF6420FDF777FA66
:103B10000020FDF797FAFF490120C1F8BC0250468A
:103B2000FDF71CFC21B0BDE8F08F47F6F001E52061
:103B3000FCF736FF21460120FCF732FF4946022000
:103B4000FCF72EFF41F230010320FCF729FF002192
:103B50000420FCF725FF59460820FCF721FF00212F
:103B60000920FCF71DFF00210A20FCF719FF0021A6
:103B70000C20FCF715FF00210D20FCF711FF0021A0
:103B80000F20FCF70DFF00211020FCF709FF072193
:103B90001120FCF705FF00211220FCF701FF002196
:103BA0001320FCF7FDFE00210720FCF7F9FE41F28F
:103BB00090611020FCF7F4FE40F227211120FCF761
:103BC000EFFE9D211220FCF7EBFE4FF4C8511320AD
:103BD000FCF7E6FE25212920FCF7E2FE0D212B2033
:103BE000FCF7DEFE07213020FCF7DAFE40F203315D
:103BF0003120FCF7D5FE03213220FCF7D1FE40F244
:103C000006213520FCF7CCFE08213620FCF7C8FE43
:103C100040F206413720FCF7C3FE4FF441713820D3
:103C2000FCF7BEFE07213920FCF7BAFE40F2026124
:103C30003C20FCF7B5FE08213D20FCF7B1FE002139
:103C40005020FCF7ADFEEF215120FCF7A9FE00212A
:103C50005220FCF7A5FE40F23F115320FCF7A0FED6
:103C600031466020FCF79CFE01216120FCF798FEA4
:103C700000216A20FCF794FE00218020FCF790FED2
:103C800000218120FCF78CFE00218220FCF788FEB9
:103C900000218320FCF784FE00218420FCF780FEB5
:103CA00000218520FCF77CFE10219020FCF778FE97
:103CB0004FF4C0619220FCF773FE40F233110720ED
:103CC000FEE341F28F01EC20FCF76AFE41F2342161
:103CD000EF20FCF765FE21460120FCF761FE494616
:103CE0000220FCF75DFE41F230010320FCF758FE94
:103CF00000210420FCF754FE59460820FCF750FE32
:103D000000210920FCF74CFE00210A20FCF748FEA8
:103D100001210C20FCF744FE00210D20FCF740FEA1
:103D200000210F20FCF73CFE00211020FCF738FE9C
:103D300007211120FCF734FE00211220FCF730FE91
:103D400000211320FCF72CFE01210720FCF728FEA0
:103D5000322003F02EFE41F290411020FCF720FEAD
:103D600040F227211120FCF71BFE322003F021FE38
:103D70008A211220FCF714FE322003F01AFE4FF4C1
:103D8000D0511320FCF70CFE06212920FCF708FE79
:103D90000D212B20FCF704FE322003F00AFE002147
:103DA0002020FCF7FDFD00212120FCF7F9FD322049
:103DB00003F0FFFD00213020FCF7F2FD40F204612A
:103DC0003120FCF7EDFD40F205313220FCF7E8FD33
:103DD00000213520FCF7E4FD40F609413620FCF7D0
:103DE000DFFD4FF401713720FCF7DAFD40F20131BD
:103DF0003820FCF7D5FD29463920FCF7D1FD0021FC
:103E00003C20FCF7CDFD40F60A213D20FCF7C8FD23
:103E1000322003F0CEFD00215020FCF7C1FDEF2140
:103E20005120FCF7BDFD00215220FCF7B9FD40F206
:103E30003F115320FCF7B4FD314652E10021084602
:103E4000FCF7AEFD21460120FCF7AAFD4946022001
:103E5000FCF7A6FD41F230010320FCF7A1FD002193
:103E60000420FCF79DFD59460820FCF799FD002130
:103E70000920FCF795FD00210A20FCF791FD0121A6
:103E80000C20FCF78DFD00210D20FCF789FD0021A1
:103E90000F20FCF785FD322003F08BFD40F201116D
:103EA0000720FCF77DFD322003F083FD4FF486519F
:103EB0001020FCF775FD07211120FCF771FD31463C
:103EC0001220FCF76DFD4FF430611320FCF768FD04
:103ED00000212920FCF764FD44F210012B20FCF79F
:103EE0005FFD00215020FCF75BFDEF215120FCF726
:103EF00057FD00215220FCF753FD40F23F115320A3
:103F0000FCF74EFD41466020FCF74AFD012161208F
:103F100002E0000000804042FCF742FD00216A20E0
:103F2000FCF73EFD00218020FCF73AFD00218120B6
:103F3000FCF736FD00218220FCF732FD00218320B2
:103F4000FCF72EFD00218420FCF72AFD00218520AE
:103F5000FCF726FD10219020FCF722FD0021922085
:103F6000FCF71EFD01219320FCF71AFD3146952038
:103F7000FCF716FD00219720FCF712FD0021982088
:103F8000FCF70EFD40F27311072081E341F21401AA
:103F9000E720FCF705FD21460120FCF701FD4FF469
:103FA00000710220FCF7FCFC41F238010320FCF711
:103FB000F7FC59460820FCF7F3FC00210920FCF728
:103FC000EFFC00210A20FCF7EBFC00210C20FCF7A1
:103FD000E7FC00210D20FCF7E3FC00210F20FCF79B
:103FE000DFFC00211020FCF7DBFC07211120FCF78F
:103FF000D7FC00211220FCF7D3FC00211320FCF792
:10400000CFFCC82003F0D5FC41F290611020FCF7F2
:10401000C7FC40F227211120FCF7C2FC322003F03C
:10402000C8FC0C211220FCF7BBFC322003F0C1FCC1
:104030004FF400611320FCF7B3FC11212920FCF799
:10404000AFFC0B212B20FCF7ABFC322003F0B1FCC2
:1040500000212020FCF7A4FC40F23F14214621203F
:10406000FCF79EFC00213020FCF79AFC4FF483768D
:1040700031463120FCF794FC00213220FCF790FC03
:104080004FF401713520FCF78BFC41F20A613620B8
:10409000FCF786FC29463720FCF782FC31463820A5
:1040A000FCF77EFC29463920FCF77AFC40F20241FD
:1040B0003C20FCF775FC40F60F413D20FCF770FCFE
:1040C00000215020FCF76CFCEF215120FCF768FC2C
:1040D00000215220FCF764FC21465320FCF760FCD1
:1040E00041466020FCF75CFC01216120FCF758FC94
:1040F00000216A20FCF754FC00218020FCF750FCD2
:1041000000218120FCF74CFC00218220FCF748FCB8
:1041100000218320FCF744FC00218420FCF740FCB4
:1041200000218520FCF73CFC10219020FCF738FC96
:104130004FF4C0619220FDE321460120FCF730FCE2
:1041400049460220FCF72CFC41F230010320FCF729
:1041500027FC00210420FCF723FC40F20721082063
:10416000FCF71EFC00210920FCF71AFC00210A20A4
:10417000FCF716FC00210C20FCF712FC00210D209E
:10418000FCF70EFC00210F20FCF70AFC142003F0C2
:1041900010FC41F2B0611020FCF702FC012111205B
:1041A000FCF7FEFB01211720FCF7FAFB4FF49C7192
:1041B0001220FCF7F5FB4FF400611320FCF7F0FB35
:1041C00009212920FCF7ECFB09212A20FCF7E8FB58
:1041D0000021A420FCF7E4FB00215020FCF7E0FBC9
:1041E000EF215120FCF7DCFB00215220FCF7D8FB2B
:1041F00040F23F115320FCF7D3FB41466020FCF70F
:10420000CFFB01216120FCF7CBFB00216A20FCF7EA
:10421000C7FB00218020FCF7C3FB00218120FCF7B5
:10422000BFFB00218220FCF7BBFB00218320FCF7B1
:10423000B7FB00218420FCF7B3FB00218520FCF7AD
:10424000AFFB04E01AE026E123E2EAE29FE3132158
:104250009020FCF7A5FB00219220FCF7A1FB032195
:104260009320FCF79DFB31469520FCF799FB40F22B
:1042700073110720FCF794FB322008E1002107208E
:10428000FCF78EFB322003F094FB4FF48E7112206A
:10429000FCF786FB0121A420FCF782FB0F210820FC
:1042A000FCF77EFB08210A20FCF77AFB08210D2091
:1042B000FCF776FB2F4629463020FCF771FB0721DF
:1042C0003120FCF76DFB40F203613220FCF768FB04
:1042D0004D4649463320FCF763FB59463420FCF732
:1042E0005FFB02213520FCF75BFB41F60F713620A6
:1042F000FCF756FB39463720FCF752FB00213820EB
:10430000FCF74EFB00213920FCF74AFB39463A20E6
:10431000FCF746FB00213B20FCF742FB07213C2039
:10432000FCF73EFB00213D20FCF73AFB322003F076
:1043300040FB01210720FCF733FB01211720FCF78C
:104340002FFB322003F035FB4FF4BD511020FCF75A
:1043500027FB40F217211120FCF722FB4FF48F714D
:104360001220FCF71DFB4FF470611320FCF718FBC3
:1043700000212A20FCF714FB0A212920FCF710FB5E
:104380004FF49F711220FCF70BFB00215020FCF72B
:1043900007FBEF215120FCF703FB00215220FCF723
:1043A000FFFA40F23F115320FCF7FAFA4146602031
:1043B000FCF7F6FA01216120FCF7F2FA00216A20ED
:1043C000FCF7EEFA00218020FCF7EAFA00218120B8
:1043D000FCF7E6FA00218220FCF7E2FA00218320B4
:1043E000FCF7DEFA00218420FCF7DAFA00218520B0
:1043F000FCF7D6FA13219020FCF7D2FA314692202E
:10440000FCF7CEFA05219320FCF7CAFA002195208B
:10441000FCF7C6FA00219720FCF7C2FA0021982089
:10442000FCF7BEFA21460120FCF7BAFA2946022021
:10443000FCF7B6FA41F238010320FCF7B1FA00218B
:104440000420FCF7ADFA00210C20FCF7A9FA0021AA
:104450000F20FCF7A5FA00212020FCF7A1FA00218B
:104460002120FCF79DFA21210720FCF799FA14205E
:1044700003F09FFA61210720FCF792FA142003F061
:1044800098FA40F273110720FCF78AFA142003F01F
:1044900090FAFFF73DBB00210846FCF781FA0021A6
:1044A0000846FCF77DFA00210846FCF779FA00215E
:1044B0000846FCF775FA0121A420FCF771FA00E028
:1044C000E2E0142003F075FA454641466020FCF70F
:1044D00067FA5E4659460820FCF762FA4FF4057108
:1044E0003020FCF75DFA43F215713120FCF758FAE1
:1044F00040F204613220FCF753FA40F61661332093
:10450000FCF74EFA42F211213420FCF749FA4FF43D
:10451000A8513520FCF744FA48F207513620FCF741
:104520003FFA41F207413720FCF73AFA41F20341E2
:104530003820FCF735FA20213920FCF731FA1A210E
:104540009020FCF72DFA00211020FCF729FA072112
:104550001120FCF725FA00211220FCF721FA002196
:104560001320FCF71DFA142003F023FA4FF4E66140
:104570001020FCF715FA40F237111120FCF710FA61
:10458000142003F016FA4FF4DC711220FCF708FA3D
:10459000142003F00EFA4FF470611320FCF700FAB8
:1045A00080212A20FCF7FCF948212920FCF7F8F9A2
:1045B000142003F0FEF921460120FCF7F1F94946E9
:1045C0000220FCF7EDF941F238010320FCF7E8F98D
:1045D00031460820FCF7E4F900210A20FCF7E0F955
:1045E00000210C20FCF7DCF900210D20FCF7D8F9A4
:1045F00030210E20FCF7D4F900215020FCF7D0F92F
:10460000EF215120FCF7CCF900215220FCF7C8F92A
:1046100040F23F115320FCF7C3F929466020FCF714
:10462000BFF901216120FCF7BBF900216A20FCF7EA
:10463000B7F911219020FCF7B3F94FF4C061922033
:10464000FCF7AEF940F202419320FCF7A9F90221F0
:104650009420FCF7A5F9142003F0ABF90121072001
:10466000FCF79EF9142003F0A4F961210720FCF760
:1046700097F940F273110720FCF792F900212020EE
:10468000FCF78EF900212120FCF78AF92221002075
:104690007AE100210846FCF783F900210846FCF77F
:1046A0007FF9142003F085F900210846FCF778F91A
:1046B00000210846FCF774F900210846FCF770F960
:1046C00000210846FCF76CF90121A420FCF768F9E9
:1046D000142003F06EF941466020FCF761F940F6C2
:1046E00006010820FCF75CF940F2037529463020EA
:1046F000FCF756F901213120FCF752F90421322050
:10470000FCF74EF94FF481713320FCF749F931463B
:104710003420FCF745F940F203113520FCF740F94D
:104720001F213620FCF73CF929463720FCF738F9E1
:1047300001213820FCF734F904213920FCF730F945
:1047400015219020FCF72CF94FF482611020FCF722
:1047500027F940F247211120FCF722F94FF4DE71CE
:104760001220FCF71DF94FF460611320FCF718F9D3
:10477000782003F01EF921460120FCF711F94FF4CF
:1047800000710220FCF70CF941F230010320FCF724
:1047900007F908210A20FCF703F900210C20FCF797
:1047A000FFF820210E20FCF7FBF800210F20FCF77A
:1047B000F7F800212020FCF7F3F800212120FCF776
:1047C000EFF83D212A20FCF7EBF8142003F0F1F874
:1047D0002D212920FCF7E4F800215020FCF7E0F817
:1047E0004DF2EF015120FCF7DBF800215220FCF7DD
:1047F000D7F840F23F115320FCF7D2F80021612096
:10480000FCF7CEF800216A20FCF7CAF83146922066
:10481000FCF7C6F805219320FCF7C2F82146FFF704
:10482000B3BB01210020FCF7BBF80A2003F0C1F85C
:1048300041F228611020FCF7B3F80E211220FCF79A
:10484000AFF840F639211320FCF7AAF80A2003F04C
:10485000B0F840211120FCF7A3F850211520FCF7F7
:104860009FF80A2003F0A5F81E211220FCF798F803
:104870000A2003F09EF84FF4B1511020FCF790F895
:1048800042F639211320FCF78BF80A2003F091F847
:1048900021460120FCF784F831460220FCF780F81D
:1048A00041F238010320FCF77BF859460820FCF759
:1048B00077F808210A20FCF773F800213020FCF774
:1048C0006FF840F202413120FCF76AF84FF483712F
:1048D0003220FCF765F840F203513320FCF760F812
:1048E0004FF482713420FCF75BF840F2013135203F
:1048F000FCF756F829463620FCF752F840F205310D
:104900003720FCF74DF84FF402713820FCF748F8D7
:1049100040F60B713920FCF743F802214120FCF7E7
:104920003FF841466020FCF73BF801216120FCF78D
:1049300037F800E0CDE04FF404719020FCF730F838
:104940004FF485719220FCF72BF804219320FCF79B
:1049500027F82146A020FCF723F801210720FCF7C7
:104960001FF821210720FCF71BF823210720FCF763
:1049700017F833210720FCF713F840F23311072012
:10498000FCF70EF80021A020FCF70AF881E53021A1
:104990001520FCF705F810219A20FCF701F82021DA
:1049A0001120FBF7FDFF43F228411020FBF7F8FF31
:1049B00002211220FBF7F4FF41F238011320FBF72C
:1049C000EFFF282002F0F5FF12210846FBF7E8FF71
:1049D000282002F0EEFF43F220411020FBF7E0FF19
:1049E00043F238011320FBF7DBFF462002F0E1FF22
:1049F00000213020FBF7D4FF40F202413120FBF7C9
:104A0000CFFF40F207313220FBF7CAFF4FF441716C
:104A10003320FBF7C5FF04213420FBF7C1FF40F230
:104A200001413520FBF7BCFF29463620FBF7B8FFD4
:104A300040F205313720FBF7B3FF4FF4C26529463A
:104A40003820FBF7ADFF29463920FBF7A9FF2146A7
:104A50000120FBF7A5FF31460220FBF7A1FF41F241
:104A600030010320FBF79CFF40F608010820FBF70C
:104A700097FF08210A20FBF793FF41466020FBF7D0
:104A80008FFF01216120FBF78BFF4FF49F71902076
:104A9000FBF786FF21469220FBF782FF21469320F9
:104AA000FBF77EFF4FF44051A020FBF779FF102168
:104AB000A320FBF775FF01210720FBF771FF2121E0
:104AC0000720FBF76DFF23210720FBF769FF332148
:104AD0000720FBF765FF40F23311A0E62DE9F8430C
:104AE000FB4D1F468046AB88089EA3F5D040043896
:104AF00002D1A879012807D0A2EB0800401C85B29A
:104B00000C464FF0D84929E02B880846991A002412
:104B1000AC713A462A24A3EB08036C812B27491E6B
:104B20005B1EAF8189B29BB20096FFF7D7FF0120D1
:104B3000A8716F81AC81BDE8F88321464046FBF740
:104B40005EFFFBF743FF0020494603E0401CA1F84D
:104B5000806080B2A842F9D3641CA4B2BC42ECD9F4
:104B6000E9E72DE9F0478246A2EB0A00401C0E4619
:104B700085B2981B401C87B200244FF0D849DDF85D
:104B8000208015E0301981B25046FBF738FFFBF763
:104B90001DFF0020494607E004FB0503401C38F8D0
:104BA0001320A1F8802080B2A842F5D3641CA4B2DF
:104BB000BC42E7D3BDE8F0872DE9FE4F0026A2EB0B
:104BC000000882465F1A701E35468946B8F1000F0C
:104BD00002DD4FF0010102E003D14FF0000101912D
:104BE00002E0C8F100080190002F02DD4FF0010043
:104BF00002E003D14FF00000009002E0C7F100078F
:104C000000904046B84501DD044600E03C46601C8B
:104C10004FF0000B029015E01FFA89F11FFA8AF09D
:104C2000FCF75CF946443D44A64202DD0199361B7F
:104C30008A44A54202DD00992D1B89440BF1010035
:104C40001FFA80FB02998B45E6DDBDE8FE8FF0B5CB
:104C50001C4615460E4607460B46FFF7ADFF3A4683
:104C6000234631461046FFF7A7FF23462A4619463A
:104C70003846FFF7A1FF2A4623463146BDE8F040FB
:104C8000104699E72DE9FC4F804600241546032085
:104C90000F46A0EB450649E0781B81B208EB040AF9
:104CA00001901FFA8AF0FCF719F9381B81B208EB62
:104CB000050900901FFA89F0FCF710F907EB040BC7
:104CC0001FFA8BF11FFA89F0FCF708F907EB0509C9
:104CD0001FFA89F11FFA8AF0FCF700F9A8EB040A21
:104CE0001FFA89F11FFA8AF0FCF7F8F8A8EB05091A
:104CF0001FFA8BF11FFA89F0FCF7F0F8019881B2E6
:104D00001FFA8AF0FCF7EAF8009881B21FFA89F0DE
:104D1000FCF7E4F8641C002E03DA06EB8406B61DEB
:104D200004E0601B06EB80066D1E0A36AC42B3DD64
:104D3000BDE8FC8F2DE9F84F82461F460C468B4696
:104D4000580700D0012000EBD700790810FB01F0D4
:104D5000203AC0B202F0FF090026009041E00C2F7B
:104D600010D0102F12D0182F3ED15A4909EBC9008C
:104D700001EB80004FF00008855D28060AD55648F3
:104D800002880BE009EB49005449F1E7544901EB73
:104D90000910EFE70A9828B94F4842882146504643
:104DA000FCF7A8F86806050E4948641CA4B24088C0
:104DB000A04219D9A4EB0B00B84209D10AF10100B5
:104DC0001FFA80FA42485C46018851450CD906E03A
:104DD00008F1010000F0FF08B8F1080FCDD3761CF0
:104DE000F6B200988642BAD3BDE8F88F0346012098
:104DF00000E05843491EC9B2FBD270472DE9FF4F6E
:104E000081B00027DDF838B01D46924680463C460A
:104E1000B9464FEA5B0627E0281B401EC1B20A20B4
:104E2000FFF7E4FFBAFBF0F00A21B0FBF1F201FB5F
:104E3000120027B9691E8C4201DA48B101273030CF
:104E4000C2B206FB048080B25B46CDF8009006E05B
:104E500006FB048080B25B462022CDF800900299C8
:104E6000FFF768FF641CE4B2AC42D5D305B0BDE8DF
:104E7000F08F2DE9FF4F81B08046DDF83CA00E9801
:104E80004FF000091F4693464C460AF001054608BC
:104E900036E0381B401EC1B20A20FFF7A7FFBBFB5C
:104EA000F0F00A21B0FBF1F201FB1200B9F1000FA2
:104EB00005D1791E8C4202DAA0B14FF001093030E1
:104EC000C2B206FB048080B200950E9B13E0000086
:104ED00070020020562F010816000020F22401085D
:104EE000662901085FEA0A6006FB04800E9B80B217
:104EF000009508D530220299FFF71CFF641CE4B22C
:104F0000BC42C6D3B2E72022F5E72DE9F84F0446AC
:104F100000F0FF0810190D46DDE90A761FFA80FA45
:104F200058191FFA80F94FF0000B11E0544502D3D5
:104F3000E819444685B24D450FD23B4629462046E6
:104F4000CDF800B0FFF7F6FE04EB570084B2761CF4
:104F50003278A2F120005E28E8D945E710B5B0B05C
:104F600001214FF0606000F0A6FD01F047FD02F066
:104F70005BF902F05FF90128FBD0684601F04AFDB9
:104F80000120009000204FF40071CDE90A100904BF
:104F900007901190CDE920010E90149013900A1102
:104FA00015902590269023920420CDE928018003B6
:104FB0002A9080012B9040122C9040002E900021CE
:104FC000684601F0B9FDC4B2012C03D10121944817
:104FD00002F042F930B0204610BDFEB501214D204F
:104FE00000F069FD0121880300F08DFD012000F033
:104FF00054FE8620032500908DF8055002208DF880
:1050000004000024874E8DF806408DF8074069465D
:10501000304600F04DFB0B220121304600F0BCFB76
:105020000B220221304600F0B7FB0B22072130464D
:1050300000F0B2FB32207C4E00906946304600F012
:1050400037FB0B220121304600F0A6FB0B22042186
:10505000304600F0A1FB0B220521304600F09CFBFE
:105060004FF4D040714E00906946304600F020FB6E
:105070000B221146304600F08FFB0B220D213046EB
:1050800000F08AFB0B220E21304600F085FB8DF8E4
:105090000550012508208DF8045000908DF8064039
:1050A0008DF807406946624800F002FB614EC6F881
:1050B0008C42322006F5237602F07BFC35603D20E1
:1050C0008DF808008DF809408DF80A408DF80B50D6
:1050D00002A800F02EFAFFF741FF08B10020FEBD44
:1050E0000120FEBD10B51F21002001F0FDFCC0F322
:1050F000820010BD10B5504C01E003F016FD206891
:1051000002F078F80028F8D1402002F0B6F8BDE8A7
:1051100010404FF4803002F0B0B870B5464C002318
:105120001A4621680D68002D0BDA444916464B6972
:105130001B0602D580234B618E6002604260826054
:1051400070BD0D682D040AD40D68ED0507D50D68F6
:10515000AD0504D50A68C2F30D438A681B1FCD68EC
:1051600025600360C0E9012170BD354A11680B68F4
:10517000002B01DA00207047C0F30C00486008687B
:1051800040F040500860086840F0004008602B483C
:1051900043695B0703D50423436100234360C86868
:1051A000106001207047264800688068704710B57D
:1051B000244C002021680CF09AFC002061680CF05F
:1051C00096FC0020A1680CF092FCE168BDE810405C
:1051D00000200CF08CBC70B5A02100200CF090FCDD
:1051E000184CA021206000200CF08AFC41F6C45528
:1051F0006060294600200CF083FCA0602946002056
:105200000CF07EFCE060216831B1616821B1A168D9
:1052100011B108B1002070BDFFF7C9FF012070BDBA
:105220004000010000000240000802400018024057
:10523000000C0240008041424000002000900240EB
:105240003C0000201C0000202DE9F04198B0012115
:10525000782000F030FC4FF633700F9002208DF86C
:10526000400003208DF8410000248DF842400120C9
:10527000DFF864828DF843000FA9404600F018FA69
:105280004FF68370954D0F900FA9284600F010FA45
:105290004FF23F01924E0F910FA9304600F008FAED
:1052A00040F23F418F4F0F910FA9384600F000FAAE
:1052B0000C220021404600F06FFA0C2201214046EA
:1052C00000F06AFA0C220421404600F065FA0C2234
:1052D0000521404600F060FA0C220821404600F00B
:1052E0005BFA0C220921404600F056FA0C220A21F2
:1052F000404600F051FA0C220B21404600F04CFAD7
:105300000C221146404600F047FA0C220D2140467F
:1053100000F042FA0C220E21404600F03DFA0C2229
:105320000F21404600F038FA0C220021284600F0F8
:1053300033FA0C220121284600F02EFA0C22072114
:10534000284600F029FA0C220821284600F024FA09
:105350000C220921284600F01FFA0C220A212846B7
:1053600000F01AFA0C220B21284600F015FA0C2244
:105370001146284600F010FA0C220D21284600F0B4
:105380000BFA0C220E21284600F006FA0C220F21FF
:10539000284600F001FA0C220021304600F0FCF90A
:1053A0000C220121304600F0F7F90C220221304690
:1053B00000F0F2F90C220321304600F0EDF90C2246
:1053C0000421304600F0E8F90C220521304600F0B7
:1053D000E3F90C221146304600F0DEF90C220D21D3
:1053E000304600F0D9F90C220E21304600F0D4F9F5
:1053F0000C220F21304600F0CFF90C220021384654
:1054000000F0CAF90C220121384600F0C5F90C223F
:105410000221384600F0C0F90C220321384600F082
:10542000BBF90C220421384600F0B6F90C22052104
:10543000384600F0B1F90C220A21384600F0ACF9E8
:105440000920CDE91240149415940420CDE90004FC
:105450001194169417941020CDE902400494000290
:10546000CDE9084011A80794CDE90C4005940694B5
:105470000E900A940B94684602F02FF80121042044
:1054800002F0C0F818B0BDE8F08110B5002A07D0CE
:105490004FF0D04310F8014B5C54491C521EF7D119
:1054A00010BD002A07D04FF0D0435B5C491C00F8C8
:1054B000013B521EF7D1704703B50146012201A8F6
:1054C000FFF7E3FF0CBD08B5014601226846FFF770
:1054D000E8FF9DF8000008BD000C024000100240EB
:1054E000001402400018024009488047094800475C
:1054F000FEE7FEE7FEE7FEE7FEE7FEE7FEE7FEE784
:10550000FEE7FEE704480549054A064B70470000E0
:10551000B70600088901000818B6012018BC012050
:1055200018B8012018B80120284908432849086004
:10553000704730B50F23C27801780125FAB1244AAB
:10554000126801F1E02102F4E062C2F5E062C2F308
:105550000722C2F10404D3404278A24084781C4060
:105560001443220181F80024007800F01F018D40CF
:105570004009800000F1E020C0F8005130BD01F08A
:105580001F0085404809800000F1E020C0F88051EC
:1055900030BD104A114001430D48001F01607047A3
:1055A0000B4A121D0029116801D0014300E081431C
:1055B000116070474FF0E0210428086903D020F003
:1055C00004000861704740F00400FAE70000FA05A3
:1055D0000CED00E080FFFF1F774910B5884206D12F
:1055E0000121084600F099FA002101205BE073498F
:1055F000884206D10121022000F08FFA002102200A
:1056000051E06F49884206D10121042000F085FA5B
:105610000021042047E06B49884206D1012108207F
:1056200000F07BFA002108203DE06749884206D15E
:105630000121102000F071FA0021102033E06349AD
:10564000884206D10121202000F067FA00212020A5
:1056500029E05F49884206D10121402000F05DFA2F
:10566000002140201FE05B49884206D101218020B3
:1056700000F053FA0021802015E05749884202D1FA
:10568000012184150AE05549884202D101214415BF
:1056900004E0534988420AD101210415204600F054
:1056A0003CFA00212046BDE8104000F036BA10BD9B
:1056B000F0B5002201274FF0030C0B6807FA02F542
:1056C0002B40AB422CD1066853000CFA03F4A643DE
:1056D00006600E79D0F800E09E4046EA0E060660AD
:1056E0000E79012E01D0022E12D18668A643866063
:1056F0004E79D0F808E09E4046EA0E06866046687D
:10570000AE43466045688E799640B6B235434560F3
:10571000C568A543C560CC799C40C3681C43C46080
:10572000521C102AC9D3F0BD4FF6FF710160002151
:10573000017141718171C171704708B541F48032C6
:105740000092C261C1610099C161C169C0690090E4
:1057500008BD0246002012690A4200D001207047AD
:10576000006980B270470246002052690A4200D0A8
:1057700001207047406980B27047018370474183C0
:1057800070470AB101837047418370474161704798
:1057900042694A40426170474B07DB0E9A40C90894
:1057A00010B500EB8100016A0F249C40A143016207
:1057B000016A1143016210BD000002400004024072
:1057C00000080240000C0240001002400014024099
:1057D00000180240001C0240002002400024024049
:1057E00000280240F848016841F001010160F64AD2
:1057F0000021083211600268F44B1A400260031D58
:10580000F34A1A60F04BF34A84331A60F04A103AB4
:105810001B1D1A60026822F480220260EA480C30E4
:105820000160181D01607047E7490022891C0A7059
:105830000870704702460020510901290CD0022946
:105840000CD0E1497431096802F01F020123934032
:105850000B4200D001207047DB49F4E7DA49703190
:10586000F1E718B500204FF4A04400903120FFF775
:10587000E1FF0099491C0091A14201D00028F5D018
:105880003120FFF7D7FF002800D0012018BDCE4AF5
:10589000116821F0F80141EAC00010607047CE495C
:1058A00008607047C849002270310A700A700128E8
:1058B00002D0042801D1052008707047C74908604C
:1058C000704741EA82115A0810B5C54B029C03EBA0
:1058D00002421143014341EA0460BB49091D0860CB
:1058E00010BDBD4908667047800140EA0170B649A5
:1058F000843108607047B84988667047800140EA83
:105900000160B14940EA0270883108607047B249CD
:1059100008677047B049C8647047AB4B08331A68D2
:10592000084322F0EC62104318607047A64B08331E
:105930001A68084322F07842104318607047A24A60
:105940000832116821F003010143116070479E483D
:105950000830006800F00C0070479B4A083211685C
:1059600021F0F001014311607047974A0832116835
:1059700021F4E051014311607047934A08321168E5
:1059800021F4604141EAC0001060704770B58E4B51
:1059900008331968934C11F00C0104D066100429E7
:1059A00003D0082903D004601BE0066019E0864A92
:1059B000121D1168C1F38055116801F03F0115B146
:1059C000B6FBF1F101E0B4FBF1F114681268C4F325
:1059D00088146143C2F30142521C5200B1FBF2F140
:1059E000016019680F2202EA11117F4A545C0168B4
:1059F000E14041601C68072505EA9424145D21FA02
:105A000004F484601B6805EA5333D25CD140C16062
:105A100070BDC0F30121032908D16B4B083319680D
:105A2000724A21F4F81102400A431A606649703143
:105A30000A68C0F30B0002430A60704767494439A3
:105A40000860704765494039086070476249C1F88D
:105A50005C0170475C4A8C321168401E21F01F01C6
:105A6000014311607047584A8C3211686FF0FF0390
:105A700021F4F85103EB0020084310607047524AAC
:105A80008C32116821F440110143116070474E4A75
:105A90008C32116821F440010143116070474A4A79
:105AA0008C32116821F44031014311607047504934
:105AB000C1F8E0017047444A30320029116801D032
:105AC000014300E08143116070473F4A34320029AE
:105AD000116801D0014300E08143116070473A4AE8
