:020000040800F2
:1000000028C80120354F0008411700084317000891
:10001000471700084B1700084F17000800000000A2
:10002000000000000000000000000000531700085E
:10003000551700080000000057170008591700085E
:100040004F4F00084F4F00084F4F00084F4F000818
:100050004F4F00084F4F00084F4F000879490008E4
:100060004F4F00084F4F00084F4F00084F4F0008F8
:100070004F4F00084F4F00084F4F00084F4F0008E8
:100080004F4F00084F4F00084F4F00084F4F0008D8
:100090004F4F00084F4F00084F4F00084F4F0008C8
:1000A0004F4F00084F4F00084F4F00084F4F0008B8
:1000B0004F4F00087D3C00084D8400084F4F00085A
:1000C0004F4F00084F4F00084F4F00084F4F000898
:1000D0004F4F0008A94E00084F4F00084F4F00082F
:1000E0004F4F00084F4F00084F4F00084F4F000878
:1000F0004F4F00084F4F00084F4F00084F4F000868
:100100004F4F0008B73A00084F4F00084F4F000804
:100110004F4F00084F4F00084F4F00084F4F000847
:100120004F4F00084F4F00084F4F00084F4F000837
:100130004F4F00084F4F00084F4F00084F4F000827
:100140004F4F00084F4F00084F4F00084F4F000817
:100150004F4F00084F4F00084F4F00084F4F000807
:100160004F4F00084F4F00084F4F00084F4F0008F7
:100170004F4F00084F4F00084F4F00084F4F0008E7
:100180004F4F00084F4F000800F002F800F07AF8D7
:100190000AA090E8000C82448344AAF10107DA45E2
:1001A00001D100F06FF8AFF2090EBAE80F0013F0BA
:1001B000010F18BFFB1A43F001031847383D010037
:1001C000583D01000A444FF0000C10F8013B13F0B9
:1001D000070408BF10F8014B1D1108BF10F8015BA0
:1001E000641E05D010F8016B641E01F8016BF9D193
:1001F00013F0080F1EBF10F8014BAD1C0C1B09D1EA
:100200006D1E58BF01F801CBFAD505E014F8016B5B
:1002100001F8016B6D1EF9D59142D6D370470000ED
:100220000023002400250026103A28BF78C1FBD8FF
:10023000520728BF30C148BF0B607047662911F0D4
:100240006383642910F05080752910F04D8078295F
:1002500010F08680632910F06E85732910F0738585
:10026000002070471FB511F04AFB10F07EF910F026
:10027000B3FD04000020002111F0B4FAE0601FBDBE
:1002800010B510BD10F0A8FE1146FFF7EBFF01F00E
:1002900017F810F0C6FE03B4FFF7F2FF03BC04F03A
:1002A0009FFD000030BF72B6704762B6704780F3A2
:1002B000088870470B49D1F800C04A685CF8043BD5
:1002C0001068184442F8040B8C4528BFA1F1DC0CDF
:1002D0008A4228BFA1F1DC02C1F800C04A6020F0C8
:1002E00000407047C0C101201CB54FF6FF7003F0FD
:1002F000FFFD1F20FE490880FEA01021CDE900105F
:10030000FD490A880988183988B21023002104F0B1
:10031000D6F94FF47840F64908801CBDF8B505467B
:100320000E4614461F4604B9F8BD2819401E82B275
:10033000334631462846009703F03EFF00BFF3E7FF
:100340002DE9F05F0746884616469A4640F2C320DC
:1003500070434FF47A71B0FBF1F000F1010906FB34
:1003600006F000EB560B344671040A0CB91B88B238
:1003700053464146FFF7D2FF012535E005FB05F066
:1003800004FB040058451AD94C4517D96B1E5B0471
:100390001A0C08EB040399B27B1B5B1C98B2534602
:1003A000FFF7BCFF6B1E5B041A0CA8EB040399B2A9
:1003B0007B1B5B1C98B25346FFF7B0FF641E6304BF
:1003C0001A0C08EB050399B23B1B98B25346FFF792
:1003D000A5FF63041A0CA8EB050399B23B1B98B266
:1003E0005346FFF79BFF6D1C4D45C7D9BDE8F09FF5
:1003F00002468A4202DD501A80B27047881A80B2E3
:10040000FBE72DE9FF4F85B081468A460020039027
:1004100083460798A0EB09050898A0EB0A06CDF8DB
:100420000890CDF804A0002D01DD012705E00DB9ED
:10043000002702E04FF0FF376D42002E02DD4FF043
:10044000010806E016B94FF0000802E04FF0FF384F
:100450007642B54201DD2C4600E03446002004908F
:100460001FE0019A91B2029A90B2DDE91223FFF7E0
:1004700067FF039828440390B3440398A04205DD26
:100480000398001B0390029838440290A34504DDB2
:10049000ABEB040B0198404401900498401C80B2DF
:1004A0000490611C04988842DBDD09B0BDE8F08F40
:1004B0008AB0002500244FF6FF7003F019FD4FF4B9
:1004C00078408B490880002010218CA2CDE90021C2
:1004D0000290894802880B4632213C200CF0B7FF7D
:1004E000002010218BA2CDE90021029082480288D1
:1004F0000B4646213C200CF0AAFF002010218BA2C5
:10050000CDE9002102907C4802880B465A213C200C
:100510000CF09DFF1FE0002010218FA2CDE90021EB
:100520000290754802880B466E213C200CF08FFF2C
:10053000C82004F035FC002010218DA2CDE9002157
:1005400002906D4802880B466E213C200CF07FFF24
:10055000C82004F025FC8C49086880470028DAD1BF
:1005600010218AA2CDE900210290634802880B463F
:100570006E213C200CF06BFF40F2DC5004F010FCCC
:1005800040F2DC5004F00CFCFFF7AEFE00250CE05E
:100590004FF6FF7005A921F8250001EB8501488081
:1005A000002003A94855681CC5B2052DF0DB06E103
:1005B000754948688047744890F8210000F01F0092
:1005C000002878D000246EE06F4890F821000121C7
:1005D000A1400840002864D06B48083030F814006F
:1005E00045490988884259DA6748123030F81400C2
:1005F00041494988884251DA6348083030F814107C
:100600003D4800881838814208DD5F48123030F8D4
:100610001400102802DAFFF767FE3FE005A830F863
:1006200024004FF6FF7188420DD15748083030F84A
:10063000140005A921F824005348123030F81400A2
:1006400001EB8401488050481C30005D032190FB81
:10065000F1F0801CC6B2534830F814004A4F1237EC
:10066000CDE9006037F814300A3F37F8142005AFA1
:1006700007EB8407798805AF37F82400FFF7C1FE40
:100680004148083030F8140005A921F824003E48FC
:10069000123030F8140001EB84014880002003A9D7
:1006A0000855601CC4B2052C8EDB0020364981F849
:1006B00021001AE0FFE7052004F072FB002412E09D
:1006C00003A8005D401C03A9085503A8005D0A2883
:1006D00007DD4FF6FF7005A921F82400002003A9CB
:1006E0000855601CC4B2052CEADB681CC5B25BE08F
:1006F0002C0000205253540058160020B2E2CAD4F5
:1007000031A3BAB5E7C8DDB4A5C3FEC6C1B2E2CA1B
:10071000D4000000D7EEB4F3CDACCAB1B4A5C3FE8B
:10072000B5E3CAFDA3BA35B5E3000000C7E5C6C10D
:10073000A3BAB5E3BBF7D3D2C9CFBDC7B5C4B5C45F
:10074000A1AE525354A1AFBFC9D2D4C7E5B3FDD5B2
:10075000FBB8F6C6C1C4BB00B5E7C8DDB4A5C3FE8F
:10076000C6C1B3F5CABCBBAFCAA7B0DCA3A1000029
:10077000202020202020C7EBBCECB2E9A3A1A3A13C
:10078000A3A120202020000030000020B5E7C8DD14
:10079000B4A5C3FEC6C1B3F5CABCBBAFB3C9B9A645
:1007A000A3A100000C190108142D08D10025F74859
:1007B000006808B9012000E00020F4490860F7E66D
:1007C000F0B591B005460026294608A80AF0EFFBCF
:1007D000044640F2FF1007900020079907F0BFFA87
:1007E000069004BB0698F0B11BE0694608A80AF021
:1007F0002DFC044614B99DF8090000B912E00698D2
:10080000007808B1069801E00DF109000746384666
:100810000BF008FE044604F0F000502801D1701CD3
:1008200086B2E2E700BF304611B0F0BD2DE9F04FCF
:1008300097B04FF0000A4FF6FF7003F059FB00200D
:100840001021D3A2CDE900210290D64802880B46A0
:1008500032213C200CF0FBFD00201021D2A2CDE97A
:1008600000210290CF4802880B4646213C200CF024
:10087000EEFD00201021D0A2CDE900210290C94850
:1008800002880B465A213C200CF0E1FD002010218B
:10089000CDA2CDE900210290C24802880B466E210C
:1008A0003C200CF0D4FD1CE000201021CDA2CDE9AD
:1008B00000210290BB4802880B4682213C200CF0AC
:1008C000C6FDC82004F06CFA4FF6FF700090B548E2
:1008D0000288922382213C2003F06EFCC82004F0A1
:1008E0005FFAC5A10EA80AF062FB0028DCD1C2A005
:1008F000FFF766FF06461CE000201021C1A2CDE9EB
:1009000000210290A74802880B4682213C200CF06F
:100910009EFDC82004F044FA4FF6FF700090A148F5
:100920000288922382213C2003F046FCC82004F078
:1009300037FA002EE0D040F2FF100D9000200D9904
:1009400007F00DFA0C9000200D9907F008FA804688
:100950007100002007F003FA07461CE00020102178
:10096000ACA2CDE9002102908E4802880B4682217C
:100970003C200CF06CFDC82004F012FA4FF6FF701A
:10098000009088480288922382213C2003F014FCC6
:10099000C82004F005FA0C980028DFD0B8F1000F49
:1009A000DCD0002FDAD094A10EA80AF000FB054697
:1009B0002DBB002421E0BDF83E00049006A90EA83E
:1009C0000AF044FB054615B99DF8210000B915E071
:1009D0000C98007808B10C9801E00DF12100059009
:1009E00005980BF01FFD054605F0F000502804D1D6
:1009F000049827F81400601C84B2DCE700BF4FF4B1
:100A0000966004F0CDF90020102186A2CDE90021E6
:100A10000290644802880B4682213C200CF017FDAE
:100A20004FF4E16004F0BCF90EF05EF9002472A10D
:100A30000EA80AF0BCFA054686E037F814100EA896
:100A400008F00DFE06A90EA80AF000FB054615B930
:100A50009DF8210000B97AE00C98007808B10C9854
:100A600001E00DF12100059071A140460FF086FDD7
:100A7000404605990FF0C5FD002003F039FA012129
:100A800048484088CDE900014648038800221146C5
:100A900040460EF0DBF901201021CDE900810290E3
:100AA000404802880B46022108460CF0D0FC4FF06B
:100AB000000B46E0002000F097FF8146BBF1FA0FE3
:100AC00004DDBAF1000F01D14FF00109B9F1020FB5
:100AD00006D114B1601E84B201E0701E84B231E010
:100AE000B9F1010F05D1601C84B2B44200DB0024CF
:100AF00028E0B9F1040F0FD1BAF1000F01D10120A4
:100B000000E000208246BAF1000F01D1012000E090
:100B100000201E49091D08600BF1010000F0FF0BC9
:100B200014209BFBF0F100FB11B038B917480068A6
:100B300008B9012000E00020144908600A2004F0F0
:100B40002FF9B7E700BF0025002D3FF476AF00BFB7
:100B500000200C9907F0F3F84146002007F0EFF869
:100B60003946002007F0EBF817B0BDE8F08F70B5FC
:100B700005460E464FF6FF7402E0FFF79BFB84B27A
:100B8000AC42FADBB442F8DC204670BDA48242429B
:100B9000B2E2CAD432A3BACDBCC6ACCFD4CABEB2BC
:100BA000E2CAD400581600204B4559303ACFC2D281
:100BB000BBD5C5CDBCC6AC004B4559313AC9CFD227
:100BC000BBD5C5CDBCC6AC004B45595F55503AD4DA
:100BD000DDCDA32FBCCCD0F820D7D4B6AFB2A5B70B
:100BE000C500000050494354555245CEC4BCFEBC1C
:100BF000D0B4EDCEF3210000303A2F504943545584
:100C000052450000C3BBD3D0CDBCC6ACCEC4BCFEE5
:100C100021000000C4DAB4E6B7D6C5E4CAA7B0DC48
:100C200021000000BFAACABCCFD4CABE2E2E2E00FF
:100C3000303A2F504943545552452F002DE9F04189
:100C400004460D4616461F46DDF818804FF42F71F6
:100C50000020FFF78CFF20804FF4BE710020FFF7CB
:100C600086FF28802088C0F5487081B25020FFF7A9
:100C70007EFF30802888C0F5F07081B25020FFF7E9
:100C800076FF388009210020FFF771FFFE4931F817
:100C90001000A8F80000BDE8F08170B588B000250C
:100CA0004FF6FF7003F024F94FF47840F7490880BD
:100CB00000201021F6A2CDE900210290F948028817
:100CC0000B4632213C200CF0C2FB00201021F6A282
:100CD000CDE900210290F34802880B4646213C20D2
:100CE0000CF0B5FB00201021FEA2CDE900210290FE
:100CF000EC4802880B465A213C200CF0A8FB40F23D
:100D0000DC5004F04DF840F2DC5004F049F84FF4A8
:100D1000784003F0EDF83C21002007F020F804466D
:100D2000FA4908680FF00CFCF8482438008820F0D5
:100D30000100F649243908800020F4490860F4498C
:100D400008803AE003A804AB05AA06A9009007A80A
:100D5000FFF774FFBDF81400BDF8101000FB01553B
:100D6000EA482438008840F00100E8492439088026
:100D7000BDF80C000090BDF81800BDF81010084434
:100D8000401E83B2BDF81C00BDF814100844401E7C
:100D900082B2BDF81810BDF81C0003F00DFADB4854
:100DA0002438008820F00100D84924390880D84828
:100DB0000088B0F5967F00DD00E0C3E700BF642047
:100DC0006843D3490988B0FBF1F63246D1A12046E9
:100DD0000FF026FA00201021CDE900410290B14821
:100DE00002880B46E6214FF487700CF030FB214659
:100DF000002006F0A4FF4FF4E16003F0D1FF4FF4B0
:100E0000E16003F0CDFF4FF4AF6003F0C9FF08B01D
:100E100070BD3EB54FF6FF7003F06AF80020102158
:100E2000C3A2CDE9002102909E4802880B463221E0
:100E30003C200CF00CFB00201021C2A2CDE90021C7
:100E40000290984802880B4646213C200CF0FFFA9D
:100E500040F2DC5003F0A4FF40F2DC5003F0A0FFAE
:100E60004FF6FF7003F044F84FF47840874908804C
:100E70008223B4221E21084603F04DFA1F20894C1C
:100E8000009064881E3CA3B2864C24881E3CA2B20B
:100E9000844C6488823CA1B2824C2488B43CA0B2C9
:100EA00003F08AF97F4840885A3881B23C225A20A0
:100EB00003F04FFA7B4909885A3988B24FF6E0733C
:100EC0003C225A21FFF73CFA1F207049088000207D
:100ED0001021A9A2CDE900210290724802880B4698
:100EE00096218C200CF0B3FA002002F0A3FF4FF4FF
:100EF000966003F055FF40F2145003F051FF0120BB
:100F000002F098FF4FF4966003F04AFF40F214504D
:100F100003F046FF022002F08DFF4FF4966003F0CD
:100F20003FFF40F2145003F03BFF032002F082FF2A
:100F30004FF4966003F034FF40F2145003F030FF9A
:100F4000002002F077FF3EBD3EB54FF6FF7002F085
:100F5000CFFF4FF478404D490880002010218EA229
:100F6000CDE9002102904F4802880B4632213C20F7
:100F70000CF06DFA002010218CA2CDE90021029026
:100F8000484802880B4646213C200CF060FA40F2AB
:100F9000DC5003F005FF40F2DC5003F001FF3C2180
:100FA000002006F0DCFE0546002428E0204602F082
:100FB0002BFF204602F012FF334931F8140002F0F3
:100FC00097FF224688A128460FF02AF900202F49D2
:100FD00008801021CDE900510290324802880B466A
:100FE000E6214FF4B4700CF032FA4FF4966003F03F
:100FF000D7FE40F2145003F0D3FE601CC4B2082C9C
:10100000D4DB2946002006F09AFE002002F0FCFE08
:10101000002002F0E3FE3EBD30B52DED048B83B021
:101020009FED750AB0EE408A4FF6FF7002F060FF48
:101030004FF4784015490880002010216FA2CDE9B7
:1010400000210290174802880B4632213C200CF008
:10105000FEF9002010216E4ACDE9002102901148CE
:1010600002880B4646213C200CF0F1F940F2DC509E
:1010700003F096FE40F2DC5003F092FE3C2100208B
:1010800006F06DFE0546C5E0161901082C0000208B
:10109000B2E2CAD4332D31A3BACBD9B6C8B2E2CAB0
:1010A000D400000058160020CDA8B9FDD4DA4C4376
:1010B00044B8F7B8F6CEBBD6C3CBE6BBFAB5C4CCC2
:1010C000EEB3E4B2BBCDACB3DFB4E7B5C4B5A5C9EC
:1010D000ABBED8D0CE2CC0B4B2E2CAD4CBD9B6C83D
:1010E00000000000B2E2CAD4CAB1B3A4D4BCCEAAF4
:1010F00035C3EB2CB2E2CAD4BDE1B9FBBDABCFD452
:10110000CABED4DA4C4344C9CF00000024040040D6
:10111000000000204C4344CBD9B6C8B2E2CAD4BDCB
:10112000E1B9FB3A256420CFF1CBD82FC3EB000007
:10113000B2E2CAD4332D32A3BABEB5CFF1B2E2CAFD
:10114000D4000000B2E2CAD4B2BDD6E83AC4ACC8FA
:10115000CFCFD4CABE2FC9CFCFC2B5F7D7AA2FD70A
:10116000F3D3D2B5F7D7AA2FC9CFCFC2D7F3D3D2F3
:10117000B6BCB5F7D7AA000041544B2D37272054F1
:1011800046544C4344C4A3BFE9BEB5CFF1B9A6C48D
:10119000DCB2E2CAD4000000B2E2CAD4332D33A3D9
:1011A000BAB6E0BBBAB4E6B2E2CAD40041544B2DA1
:1011B0003727205446544C4344C4A3BFE9D3B5D386
:1011C000D0B6E0B4EF38D2B34C4344BBBAB4E62C4B
:1011D000B1BEB2E2CAD4BDABB2E2CAD4C8ABB2BFF0
:1011E00038D2B3BBBAB4E600CED2CAC7B5DA2564EA
:1011F000D2B3BBBAB4E6000000000000B2E2CAD429
:10120000332D34A3BAB1B3B9E2B2E2CAD4000000BC
:10121000583B010800243FE0072101EBC401C8B29C
:1012200002F0B3FD601C00EE100AB8EEC00AF2EE48
:10123000000A20EE200ADFEDCC0A80EE201AB0EE84
:10124000418A9FEDCA0A28EE000A10EE101A0846DD
:1012500010F0E4FA41EC190B53EC192BC4A1284609
:101260000EF0DEFF1F20C849088000201021CDE9C4
:1012700000510290C54802880B46E6214FF4A57044
:101280000CF0E5F84FF4966003F08AFD40F214503C
:1012900003F086FD601CC4B2082CBDDB294600208B
:1012A00006F04DFD03B0BDEC048B30BD07E0FFF749
:1012B000F4FCFFF7AEFDFFF747FEFFF7ADFEF6E7E4
:1012C0000EB500254FF4A06003F054FEA82003F0F3
:1012D00005FD4FF4E13003F091FD00F047FBAC4811
:1012E00041685420884702F019FE00F05FFB00F0CF
:1012F0008BFC42F2CF01632002F0D0FC002006F00C
:101300006CFC022006F069FC0BF048F8A1490122B0
:101310000868A1A109F0D7F99E49012248689FA158
:1013200009F0D1F94FF47840974908804EE04FF426
:101330007840954908804FF6FF7002F0D9FD98A0DB
:101340001021CDE90010914802880B4632213C2043
:1013500003F0B5F996A01021CDE900108B48028862
:101360000B4646213C2003F0AAF923E095A010216A
:10137000CDE90010854802880B465A213C2003F035
:101380009EF9C82003F00CFD94A01021CDE90010B7
:101390007E4802880B465A213C2003F090F9C82071
:1013A00003F0FEFC9348006808B9012000E000202B
:1013B00090490860002310225A213C200BF081FD47
:1013C0000028D3D14FF6FF7002F092FD0BF033FFEF
:1013D0000028ACD1102188A2CDE9002102906B48F1
:1013E00002880B4632213C200CF031F800201021FD
:1013F0008CA2CDE900210290644802880B46462168
:101400003C200CF024F81F205F49088000201021A8
:1014100089A2CDE9002102905C4802880B465A213E
:101420003C200CF014F8002010218CA2CDE9002102
:101430000290564802880B466E213C200CF007F8BB
:10144000002010218EA2CDE9002102904F48028891
:101450000B4682213C200BF0FAFF4FF478404A49BA
:1014600008800020102191A2CDE900210290474878
:1014700002880B46AA213C200BF0E9FF0020102136
:1014800094A2CDE900210290404802880B46BE217B
:101490003C200BF0DCFF0020102195A2CDE90021BB
:1014A00002903A4802880B46D2213C200BF0CFFF35
:1014B0000020102196A2CDE9002102903348028835
:1014C0000B46E6213C200BF0C2FF0020102197A222
:1014D000CDE9002102902D4802880B46FA213C20DC
:1014E0000BF0B5FF3FE0002000F07EFA04462046F6
:1014F000012C04D0022804D0042807D104E0FEF710
:10150000D7FFFFF793F901E0FFF7D0FE00BF681C9B
:10151000C5B2142D24D100253648006808B9012031
:1015200000E00020334908608448D0F8A40268B184
:10153000002010213BA2CDE900210290134802882F
:101540000B4646213C200BF082FF0CE04FF6FF706B
:101550005623BC22462100903C2002F02DFE02E0E2
:101560000A2003F01DFCBEE7000080420000C842D4
:10157000B5B1C7B0B1B3B9E2C1C1B6C83A25332ECF
:1015800031662525000000002C00002058160020A0
:10159000300100206C030020303A0000313A000096
:1015A000414C49454E54454B2053544D3332000075
:1015B000466F6E74205570646174696E672E2E2EAE
:1015C0000000000020466F6E7420557064617465E1
:1015D000206572726F722120000000002020506C84
:1015E0006561736520436865636B2E2E2E2E202067
:1015F00000000000A4824242414C49454E54454BF4
:101600002041544B2D3727205446544C4344B5E7D2
:10161000C8DDB4A5C3FEC6C1B2E2CAD4CAB5D1E919
:1016200000000000C7EBD1A1D4F1B2E2CAD4C4A338
:10163000CABDA3BA000000004B455930A3BAB5E7B4
:10164000C8DDB4A5C3FEC6C1B2E2CAD4A3A8D6A75A
:10165000B3D635B5E3B4A5BFD8A3A9004B455931DE
:10166000A3BACDBCC6ACCFD4CABEB2E2CAD4A3A87A
:10167000D0E8D2AA5344BFA8D6A7B3D6A3A90000E6
:101680004B45595F5550A3BAD2BABEA7D7D4B2E2E0
:10169000CAD4A3A8CBD9B6C82FBEB5CFF12FB6E018
:1016A000BBBAB4E62FB1B3B9E2A3A900B9E3D6DD62
:1016B000CAD0D0C7D2EDB5E7D7D3BFC6BCBCD3D054
:1016C000CFDEB9ABCBBE28414C49454E54454B29E2
:1016D00000000000B9D9B7BDCDF8D5BEA3BA777761
:1016E000772E616C69656E74656B2E636F6D00009B
:1016F000BFAAD4B4B5E7D7D3CDF8C2DBCCB3A3BA75
:101700007777772E6F70656E6564762E636F6D00E8
:10171000B5E7BBB028B4ABD5E629A3BA3032302D3B
:10172000333832373137393000000000323031344D
:10173000C4EA34D4C231C8D500000000008042425F
:10174000704700BFFEE700BFFEE700BFFEE700BF37
:10175000FEE7704770477047704700000CB50020E7
:10176000019000907648006840F480307449086029
:1017700000BF7348006800F4003000900198401CDE
:101780000190009818B90198B0F5A04FF1D16C48BC
:10179000006800F4003010B10120009001E000204A
:1017A00000900098012846D165484030006840F01C
:1017B00080506349403108606248006840F440400E
:1017C000604908605E48083000685D49083108607B
:1017D0000846006840F4004008600846006840F48D
:1017E000A05008605848091F0860081F006840F0B2
:1017F0008070091F086000BF5148006800F0007049
:101800000028F9D040F20570504908604C48083073
:10181000006820F003004A49083108600846006863
:1018200040F00200086000BF45480830006800F042
:101830000C000828F8D10CBD10B54548006840F4EC
:101840007000434908603E48006840F001003C4990
:10185000086000203A4908310860394800683D496D
:101860000840374908603C48091D0860081F0068A7
:1018700020F48020091F0860002031490C310860E5
:10188000FFF76CFF4FF0006031498039086010BDF0
:1018900070B500200022022300240221284D0835C3
:1018A0002D6805F00C0020B1042806D0082834D19A
:1018B00007E02A4D2A4E356033E02A4D284E356028
:1018C0002FE01F4D2D1D2D68C5F380541C4D2D1D7F
:1018D0002D6805F03F0154B1224DB5FBF1F5184ECE
:1018E000361D3668C6F3881605FB06F209E01B4D67
:1018F000B5FBF1F5124E361D3668C6F3881605FBAA
:1019000006F20F4D2D1D2D68C5F301456D1C6B00B2
:10191000B2FBF3F5124E356003E0104D104E35600A
:1019200000BF00BF064D08352D68C5F303150E4EE8
:10193000705D0B4D2D68C540094E356070BD0000CF
:10194000003802400070004008544007003C02404C
:1019500088ED00E0FFFFF6FE103000240024F400C4
:101960000400002000127A00080000201CB50121AC
:10197000202004F04BFB4FF4C060009001208DF854
:10198000040000208DF8060003208DF805000120DA
:101990008DF807006946044804F09AF84FF4C061D6
:1019A000014804F011F91CBD001402401CB50121CE
:1019B000112004F02BFB1C20009000208DF8040067
:1019C00003208DF8050001208DF807006946354891
:1019D00004F07EF80120009002208DF8070069468F
:1019E000314804F075F81CBD10B5044614B101204F
:1019F0002E4908702D480078002837D0102129483A
:101A000004F0C8F878B10821264804F0C3F850B1B2
:101A10000421244804F0BEF828B10121224804F032
:101A2000B9F8012822D10A2003F0BAF900201F4991
:101A3000087010211B4804F0ADF808B9012010BD52
:101A40000821184804F0A6F808B90220F7E7042195
:101A5000144804F09FF808B90320F0E70121124868
:101A600004F098F801281BD10420E8E710210D4864
:101A700004F090F8012813D108210A4804F08AF8EC
:101A800001280DD10421074804F084F8012807D16A
:101A90000121054804F07EF810B9012003490870BF
:101AA0000020CCE700100240000002401800002097
:101AB00010B5044600BF0221414805F06DF9002829
:101AC000F9D021463E4805F01EF900BF01213C48EF
:101AD00005F062F90028F9D0394805F011F9C0B2D3
:101AE00010BD00B587B00121084604F08FFA01212E
:101AF000080304F0E5FA3820059002208DF818005C
:101B000000208DF81A0003208DF8190001208DF8AF
:101B10001B0005A92B4803F0DBFF05220321294800
:101B200004F061F805220421264804F05CF805223F
:101B30001146244804F057F80121080304F015FB6E
:101B400000214FF4805004F010FB0020ADF800009D
:101B50004FF48270ADF802000020ADF804000220BE
:101B6000ADF806000120ADF808004002ADF80A000B
:101B70003820ADF80C000020ADF80E000720ADF8BD
:101B8000100069460E4804F043FF01210C4805F09F
:101B900039F8FF20FFF78CFF07B000BD10B50446F1
:101BA000074800884FF6C771084005490880084675
:101BB0000088204308800121014805F023F810BD6A
:101BC000003001400004024010B500240020D84934
:101BD00008609020FFF76CFF0020FFF769FF0020EE
:101BE000FFF766FF0020FFF763FFFF20FFF760FFAE
:101BF00044EA0024FF20FFF75BFF04430120CD49A6
:101C0000C1F8B802204610BD1CB50121022004F025
:101C1000FDF90121402004F0F9F94FF480400090D3
:101C200001208DF8040000208DF8060003208DF8B7
:101C3000050001208DF807006946BF4803F048FF02
:101C4000802000906946BD4803F042FF8021BB48D8
:101C500003F0BAFF0120B6490860FFF742FF0020F9
:101C6000FFF79CFFFFF7B0FFB54908801CBD10B51A
:101C700000240020AE4908600520FFF719FFFF206F
:101C8000FFF716FF04460120AA49C1F8B802204612
:101C900010BD10B504460020A54908600120FFF7DB
:101CA00007FF2046FFF704FF0120A249C1F8B80250
:101CB00010BD10B500209E4908600620FFF7F8FE11
:101CC00001209C49C1F8B80210BD10B50020984908
:101CD00008600420FFF7ECFE01209649C1F8B80225
:101CE00010BD2DE9F04106460C46174600209049EC
:101CF00008600320FFF7DCFEC4F30740FFF7D8FEBF
:101D0000C4F30720FFF7D4FEE0B2FFF7D1FE0025B1
:101D100005E0FF20FFF7CCFE7055681C85B2BD4280
:101D2000F7DB012082490860BDE8F08110B500BFF3
:101D3000FFF79DFF00F001000028F9D110BD2DE94B
:101D4000F04106460C461746FFF7B3FF00207849DE
:101D500008600220FFF7ACFEC4F30740FFF7A8FEBF
:101D6000C4F30720FFF7A4FEE0B2FFF7A1FE0025B1
:101D700004E0705DFFF79CFE681C85B2BD42F8DB95
:101D800001206B490860FFF7D1FFBDE8F0812DE924
:101D9000F04107460E461446F0B2C0F58075AC42DD
:101DA00000DC254612E02A4631463846FFF7C7FFD9
:101DB000AC4200D10BE02F442E44601B84B2B4F53A
:101DC000807F02DD4FF4807500E02546EBE700BF21
:101DD000BDE8F08110B5044621465AA00EF014FA71
:101DE0002403FFF766FFFFF7A1FF002050490860BA
:101DF0002020FFF75DFEC4F30740FFF759FEC4F350
:101E00000720FFF755FEE0B2FFF752FE01204949D7
:101E1000C1F8B802FFF78AFF10BD2DE9F05F8146D7
:101E20000F461646DFF824B14FEA1738C7F30B0AFE
:101E3000CAF58054A64200DC344644E04FEA08313B
:101E40004FF480525846FFF74CFF002508E00AEB9C
:101E500005001BF80000FF2800D003E0681C85B2D5
:101E6000A542F4DB00BFA54216DA4046FFF7B2FFF9
:101E7000002507E019F8050005EB0A010BF8010041
:101E8000681C85B2A542F5DB4FEA08314FF4805259
:101E90005846FFF77CFF04E0224639464846FFF7E4
:101EA00076FFA64200D10FE008F101084FF0000ACA
:101EB000A1442744301B86B2B6F5805F02DD4FF4A3
:101EC000805400E03446B9E700BFBDE8F09F10B58C
:101ED000FFF7EFFEFFF72AFF002015490860C72033
:101EE000FFF7E6FD01201349C1F8B802FFF71EFF16
:101EF00010BD10B500200E490860B920FFF7D8FDCD
:101F000001200C49C1F8B802032002F001FF10BD06
:101F100010B5002006490860AB20FFF7C9FD01207D
:101F20000449C1F8B802032002F0F2FE10BD00001F
:101F3000B882404200804042000402400018024043
:101F40001A00002066653A25780D0A0098030020E3
:101F50000020FE490860091D0860091D0860091D70
:101F60000860FA4924310860091D0860091D0860ED
:101F7000F748F649383108600020091D08607047AD
:101F800001460020012900D011B9F24B197000E080
:101F9000262070470146ED4A121D106820F0FF0010
:101FA00008431060704770B5044606E0E7483430D7
:101FB000056805F0450000B100E0F7E700BF042028
:101FC00004F040FA20B1042004F047FA032070BD69
:101FD000012004F037FA20B1012004F03EFA01207C
:101FE000F5E7DA4810300068A04201D01020EEE793
:101FF00040F2FF5004F031FAD44814300068082150
:102000000840C0B2E3E72DE9FC4107460D46002633
:1020100000240020009001900820CF490860102083
:102020004860402088600020C8604FF480600861EC
:10203000084604F074F91020FFF7B5FF044614B108
:102040002046BDE8FC81C54800880004C2490860FC
:1020500037204860402088600020C8604FF48060CE
:102060000861084604F05BF93720FFF79CFF04463F
:102070000CB12046E5E74FF0FF30B9490860082071
:102080004860302088600220C8600020086101207C
:102090004861084604F06FF90020AF49086033201A
:1020A0004860402088600020C8604FF4806008616C
:1020B000084604F034F93320FFF775FF04460CB1ED
:1020C0002046BEE70DE04FF4001004F0BBF940B12C
:1020D0009E48803000684DF82600761C022E00D302
:1020E00007E09A483430006840F22A61084000282E
:1020F000E9D000BF082004F0A5F920B1082004F0C1
:10210000ACF904209DE7022004F09CF920B10220E4
:1021100004F0A3F9022094E7202004F093F920B101
:10212000202004F09AF906208BE74FF4007004F0A9
:1021300089F928B14FF4007004F08FF9072080E787
:1021400040F2FF5004F089F900980006009901F46C
:102150007F4140EA0120009901F47F0140EA11200B
:10216000009940EA1160686001980006019901F445
:102170007F4140EA0120019901F47F0140EA1120EA
:10218000019940EA1160286020465AE77CB505466F
:10219000002400200090019000260DB1022600E0EE
:1021A00000266A481430006800F0007008B10E2064
:1021B0007CBD6A49098888B26946FFF724FF044656
:1021C0000CB12046F4E7019800F4802060B3634826
:1021D000008800046049086037204860402088601B
:1021E0000020C8604FF480600861084604F097F84A
:1021F0003720FFF7D8FE04460CB12046D8E75648F2
:102200000660062054494860402088600020C8606D
:102210004FF480600861084604F081F80620FFF75B
:10222000C2FE04462046C3E72520C1E770B5044638
:1022300000254C480078032802D12725284670BD88
:102240004848007838B147480078012803D045480D
:102250000078022819D1B4F5805F02D127252846DD
:10226000EDE7E0B2FFF792FF054675B93748001D6C
:10227000006820F4C0503549091D08600846006810
:10228000204308600846006808602846D7E710B574
:1022900004463148046007202F4948604020886088
:1022A0000020C8604FF480600861084604F037F8E9
:1022B0000720FFF778FE10BDF0B501460020002290
:1022C000284B1B7881F85630244B1B88A1F85430DA
:1022D000254B1B681A0E93090B70C2F383034B70D6
:1022E00002F003038B70204B1B68C3F30742CA70D4
:1022F0001D4B1B88C3F307220A711B4B1A784A71C6
:102300005B681A0E1301CB80174B5B68C3F307425F
:10231000CB8843EA1213CB8002F00F030B72124BEF
:102320009B88C3F30722D3094B72C2F380138B72CD
:10233000C2F34013CB72C2F300130B7300234B7331
:10234000084B1B78C3B1074B1B780FE0002C0140F2
:10235000FF07C00024000020B01300202000002050
:10236000C41300201C000020DC130020012B03D02C
:10237000FE4B1B78032B4FD193071B0D0B61FC4BBE
:102380001A790B6943EA82030B61F94B9B681A0EB9
:102390000B6943EA92130B61C2F3C2030B7502F09F
:1023A00007034B75F24B9B68C3F3074253098B75C8
:1023B000C2F38203CB7593075B0F0B76EC4B1B8943
:1023C000C3F307220B7E43EAD2130B760B695B1C27
:1023D0000024C1E912340B7E9B1C012404FA03F390
:1023E000DC17D1E91256A5FB037C06FB03C305FBF2
:1023F0000433C1E912730C7A0123A3400B65002456
:10240000D1E912650B6DA6FB037C05FB03C306FB3C
:102410000433C1E912732EE0D44B1B78022B2AD16E
:10242000D34B1A7993069B0A0B61D14B9B681A0E0A
:102430000B6943EA02230B61CD4B9B68C3F3074250
:102440000B6913430B61CA4B1B89C3F307220B694A
:102450005B1C4FF40074A3FB04464FF4806300251B
:10246000A4FB037C06FB03C304FB0533C1E9127321
:102470004FF400730B65C2F3801301F8193F930604
:102480005B0E4B70BA4B1A7A4B7843EAD2134B70FF
:1024900002F07F038B70B64BDB681A0ED309CB704A
:1024A000C2F341130B71C2F382034B7193071B0FED
:1024B0008B71AF4BDB68C3F307428B7943EA92130E
:1024C0008B71C2F34013CB7100230B7202F0010336
:1024D0004B72A74B9B89C3F30722D3098B72C2F3BC
:1024E0008013CB72C2F340130B73C2F300134B7310
:1024F000C2F381038B7302F00303CB739C4B1A7BF3
:1025000053080B7401234B749A4B1B681A0ECA7440
:102510001939984B1B68C3F307421402CC85954BBD
:102520001B88C3F30722CB8D1343CB85914B1A78BD
:1025300014060C635B681A0E0B6B43EA02440C63CF
:102540008C4B5B68C3F307420B6B43EA02240C63BA
:10255000884B9B88C3F307220B6B13430B63854B9C
:102560001A7934235A54834B9B681A0E35235A54D4
:10257000804B9B68C3F3074214068C637D4B1B8919
:10258000C3F307228B6B43EA02448C63794B1A7ABC
:102590008B6B43EA02248C63764BDB681A0E8B6BE1
:1025A00013438B63734BDB68C3F307423C235B5CD1
:1025B00043EA12143C235C5413071C0DCC876D4B6B
:1025C0009B89C3F30722CB8F1343CB87694B1A7BBD
:1025D000540840235C54012441235C54F0BD70B581
:1025E00000264FF4803505E06348046804F0450098
:1025F00000B103E02800A5F10105F5D100BF15B138
:1026000004F0040028B10326042003F026FF30461E
:1026100070BD012003F016FF18B10126012003F060
:102620001CFF40F2FF5003F018FF3046F0E72DE9A1
:10263000F04105460E464FF0000805E04E48076899
:1026400007F0450000B100E0F8E700BF042003F008
:10265000F9FE28B1042003F000FF0320BDE8F0815B
:10266000012003F0EFFE20B1012003F0F6FE01206F
:10267000F4E7414824380068A84201D01020EDE773
:1026800040F2FF5003F0E9FE3B482038046804F4B0
:10269000604018B9200C30804046DFE704F4005059
:1026A00008B11320DAE704F4804008B11020D5E720
:1026B00004F4004008B10F20D0E74046CEE738B51B
:1026C00000240120009003F024FE10B925242046A8
:1026D00038BD26480078042825D000202749086006
:1026E00002204860C02088600020C8604FF48060ED
:1026F0000861084603F013FEFFF771FF04460CB1B2
:102700002046E5E71C48203800681A4908601A4846
:102710001C380068486018481838006888601648F7
:1027200014380068C8601148007858B10F48007824
:10273000012807D00D480078062803D00B48007800
:10274000022821D100200D49086003204860402064
:1027500088600020C8604FF480600861084603F07C
:10276000DEFD69460320FFF762FF09E01C00002040
:10277000DC130020EC130020342C0140B0130020A7
:1027800004460CB12046A3E7FE480078032816D182
:10279000BDF800000004FC490860032048604020A8
:1027A00088600020C8604FF480600861084603F02C
:1027B000B6FDFFF714FF04460CB1204688E7F14848
:1027C000007804282AD0BDF80000F0490860BDF860
:1027D00000000004EC49086009204860C0208860BF
:1027E0000020C8604FF480600861084603F097FD40
:1027F000FFF7F5FE04460CB1204669E7E44800689F
:10280000E4490860E248001D00684860E04808307C
:1028100000688860DE480C300068C860002057E718
:1028200010B506E0DA482030046804F0450000B135
:1028300000E0F7E700BF042003F004FE20B104200D
:1028400003F00BFE032010BD40F2FF5003F005FE25
:102850000020F8E770B500264FF4803506E0CC483C
:102860002030046804F0450000B103E02800A5F121
:102870000105F4D100BF15B104F0040028B103260E
:10288000042003F0EAFD304670BD04F0400018B1AA
:102890000026402003F0E1FD3046F5E770B5002545
:1028A0004FF4803404E0802003F0CCFD00B103E05D
:1028B0002000A4F10104F6D100BF0CB9032070BDC3
:1028C00040F2FF5003F0C9FD2846F8E72DE9F04734
:1028D0000027002400260025A046A1467620AE4908
:1028E00008750020086048608860C8600861084674
:1028F00003F0EBFC032003F008FDA5481038006846
:1029000040F48070A2491039086000BF12E0002036
:102910009D49086048608860C8604FF48060086125
:10292000084603F0FCFCFFF7B9FF044604B903E0D6
:10293000781CC7B24A2FEADB00BF14B12046BDE8BD
:10294000F0874FF4D5709049086008204860402017
:1029500088600020C8604FF480600861084603F07A
:10296000DEFCFFF777FF044624B901208549087093
:102970004FF080490020844908603720486040209B
:1029800088600020C8604FF480600861084603F04A
:10299000C6FC3720FFF707FB0446002C4BD134E080
:1029A0000020794908603720486040208860002076
:1029B000C8604FF480600861084603F0B0FC37201F
:1029C000FFF7F1FA04460CB12046B8E7734849EA2C
:1029D00000006D4908602920486040208860002080
:1029E000C8604FF480600861084603F098FCFFF768
:1029F00017FF04460CB12046A1E765480668012090
:102A000080EAD67080F001086D1CB8F1000F03D188
:102A10004FF6FF708542C3D34FF6FF70854202D355
:102A20001B2420468BE706F08040060032D00220AF
:102A3000544908702EE01CE05948534908600120B1
:102A40004860402088600020C8604FF480600861C2
:102A5000084603F064FCFFF7E3FE04460CB1204691
:102A60006DE74B480668012080EAD67080F00108C7
:102A70006D1CB8F1000F03D14FF6FF708542DBD318
:102A80004FF6FF70854202D31B24204657E70320F0
:102A90003C490870204652E73EB5002401214148D8
:102AA00003F0B4FA0121C80203F00AFB0121C802B5
:102AB00003F05BFB4FF4F850019002208DF8080002
:102AC0008DF8090000208DF80A0001208DF80B0018
:102AD00001A9354802F0FCFF0420019001A9334808
:102AE00002F0F6FF0C2208212F4803F07CF80C229C
:102AF00009212D4803F077F80C220A212A4803F017
:102B000072F80C220B21284803F06DF80C221146B4
:102B1000254803F068F80C220221244803F063F8EA
:102B200000214FF4006003F020FBFFF711FA312081
:102B30008DF8000000208DF801008DF802000120C2
:102B40008DF80300684602F01AFAFFF7BFFE04464C
:102B500014B9FFF7B4FD04461CB91548FFF7ACFBE8
:102B6000044634B91249B1F854100804FFF78FFB3A
:102B7000044624B94FF40060FFF758FB0446E4B163
:102B8000004817E01C000020B013002020000020A7
:102B9000142C0140DC13002098130020000010804A
:102BA0000080FF800C00400000080240000C024042
:102BB000001400200078032806D10020FFF7EAF96E
:102BC0000020FFF7DDF9044620463EBD10B5002089
:102BD00003F09BFB002010BD70B590B004460E467C
:102BE000154600BFF94802F05EFB0028FAD1F7480D
:102BF00002F030FA4FF000600190F5480290039423
:102C000004950020059006904FF4806007908000A6
:102C100008908000099000200A904FF440300B90FB
:102C200004200C9003200D904FF400000E908010B3
:102C30000F9001A9E54802F0AFFA2021E34802F025
:102C4000FBFA0121E14802F0E1FA10B070BD014643
:102C5000002002E04910421CD0B20129FAD170478D
:102C60002DE9F84F8146174698460A9C4FF0000A16
:102C7000D3464D464FF0FF36B9F1000F02D1262062
:102C8000BDE8F88F0020D24954390860D148007857
:102C9000022805D10402780A40EAC8574FEA68289A
:102CA0000020CD4988604860401E086001204861CE
:102CB0000020C8600861084603F05DFBC4486C381A
:102CC000006800F0007008B10E20D9E7002C21DD6B
:102CD000B4F5006F1EDC601E2040D8B92046FFF717
:102CE000B6FF0090BD4804601020BC4948604020F9
:102CF00088600020C8604FF480600861084603F0D7
:102D00000EFB1020FFF74FF98246BAF1000F03D0F7
:102D10005046B5E72620B3E700980001AE49886029
:102D2000084644604FF0FF300860012048610220EF
:102D3000C86000200861084603F01DFBA748076033
:102D40001120A6494860402088600020C8604FF4E8
:102D500080600861084603F0E2FA1120FFF723F9CA
:102D60008246BAF1000F01D0504689E79C480078AE
:102D700000285AD1FDF797FA17E04FF4004003F00E
:102D800061FB70B14FF0000B05E09148006845F819
:102D90002B000BF1010BBBF1080FF6D32035914E40
:102DA00003E00EB904206BE7761E89484C380068B2
:102DB00040F22A6108400028DFD0082003F042FBDF
:102DC00020B1082003F049FB042059E7022003F05A
:102DD00039FB20B1022003F040FB022050E7202005
:102DE00003F030FB20B1202003F037FB062047E73B
:102DF0004FF4007003F026FB28B14FF4007003F08D
:102E00002CFB07203CE703E07148006828602D1D7B
:102E10004FF4001003F016FB0028F5D1FDF745FA3A
:102E200040F2FF5003F019FB39E06D4800780128AB
:102E300035D100206C4908706C4908706C490870E5
:102E400063484438006840F22A31084360494439F5
:102E500008605F485438006840F008005C49543905
:102E60000860002221464846FFF7B6FE00E0761EC5
:102E700056485838006800F0006038B95C4800785F
:102E800020B95948007808B9002EF0D10EB90420B5
:102E9000F6E65548007810B1534890F800A0504627
:102EA000EEE62DE9FF5F17469846DDE90E464FF046
:102EB0000009CA464FF0FF354E49009808600020CF
:102EC00043495439086043480078022805D1040278
:102ED000780A40EAC8574FEA682800203E498860CF
:102EE0004860401E0860012048610020C8600861F9
:102EF000084603F040FA36486C38006800F000706D
:102F000018B10E2004B0BDE8F09F002C21DDB4F50F
:102F1000006F1EDC601E2040D8B92046FFF797FEE8
:102F200083462E48046010202C4948604020886069
:102F30000020C8604FF480600861084603F0EFF994
:102F40001020FFF730F88146B9F1000F03D0484652
:102F5000D8E72620D6E7012E7DD906FB04F0B0F194
:102F6000007F01D32620CDE74FEA0B101A49886075
:102F700006FB04F048604FF0FF3008600120486114
:102F80000220C86000200861084603F0F4F91348E5
:102F90000760122011494860402088600020C86006
:102FA0004FF480600861084603F0B9F91220FEF77B
:102FB000FAFF8146B9F1000F01D04846A2E7084860
:102FC000007800287ED1FDF76EF933E058640240A6
:102FD000802C01401C000020C4130020B0130020EE
:102FE00024000020FFFF7F00260000202500002095
:102FF00027000020280000204FF4004003F022FAB0
:10300000A0B14FF0000A07E0FE480068FE490968D9
:1030100041F82A000AF1010ABAF1080FF4D3FA487C
:1030200000682030F8490860F84D03E00DB904202D
:1030300068E76D1EF3484C38006840F22A310840BA
:103040000028D9D0082003F0FDF928B1082003F0AA
:1030500004FA042056E79CE0022003F0F3F920B1C3
:10306000022003F0FAF902204CE7202003F0EAF9ED
:1030700020B1202003F0F1F9062043E74FF400705F
:1030800003F0E0F928B14FF4007003F0E6F90720EF
:1030900038E709E0DB480068DB4909680860DA487E
:1030A0000068001DD84908604FF4001003F0CAF909
:1030B0000028EFD14FF4807003F0C4F920B3D44856
:1030C000007800E027E038B1D1480078012803D02B
:1030D000CF480078022817D10020CE4908600C2084
:1030E0004860402088600020C8604FF4806008611C
:1030F000084603F014F90C20FEF755FF8146B9F19C
:10310000000F01D04846FDE6FDF7CFF840F2FF5032
:1031100003F0A3F93DE0C0480078012839D1002030
:10312000BE4908700120BE4908700020BD490870E2
:10313000B4484438006840F22A310843B149443960
:103140000860B0485438006840F00800AD49543970
:10315000086006FB04F100220098FFF73DFD00E047
:103160006D1EB148006800F0006008B9002DF7D16D
:103170000DB90420C6E600BFAA48007818B9A748D0
:1031800000780028F8D0A548007810B1A34890F83E
:1031900000904846B6E61CB5044600200190009019
:1031A000A248008800049B4908600D204860402028
:1031B00088600020C8604FF480600861084603F012
:1031C000AEF890484C380068009003E08D484C38C9
:1031D00000680090009800F045000028F6D001201B
:1031E00003F030F920B1012003F037F901201CBDB4
:1031F000042003F027F920B1042003F02EF9032066
:10320000F5E78048703800680D2801D01020EEE7FF
:1032100040F2FF5003F021F97A486C3800680190C1
:103220000198C0F3432020700020E0E72DE9FF5F04
:1032300086B017469846149D0026002005900490FD
:10324000002481460390824602900195DDF818B073
:10325000DDF818B0BBF1000F03D126200AB0BDE89D
:10326000F09F0020674954390860714988604860C0
:10327000401E0860012048610020C86008610846BF
:1032800003F079F85F486C38006800F0007008B10E
:103290000E20E3E75E480078022805D10502780A8F
:1032A00040EAC8574FEA6828002D1FDDB5F5006FCA
:1032B0001CDC681E2840C8B92846FFF7C8FC0590EA
:1032C0005448056010205349486040208860002021
:1032D000C8604FF480600861084603F020F81020B1
:1032E000FEF761FE06461EB13046B7E72620B5E779
:1032F0004E4800880004474908600D20486040207F
:1033000088600020C8604FF480600861084603F0C0
:1033100006F80D20FEF747FE06460EB130469DE743
:1033200038486C38006803904FF0FF341CE0641E8E
:103330003E4800880004374908600D20486040205E
:1033400088600020C8604FF480600861084602F081
:10335000E6FF0D20FEF727FE06460EB130467DE75C
:1033600028486C3800680390039800F4807008B90E
:10337000002CDCD10CB9292070E726480760182002
:1033800024494860402088600020C8604FF4806075
:103390000861084602F0C3FF1820FEF704FE064647
:1033A0000EB130465AE700201D490870059800010B
:1033B0001F498860084645604FF0FF3008600120D3
:1033C00048610020C8600861084602F0D4FF4FF051
:1033D000FF3411480078002870D1FCF764FF5CE0EE
:1033E0004FF4804003F02EF888B30198A0EB090059
:1033F00020283BD20198A0EB090000F00300E8B9B7
:10340000019817E0802C014028000020FFFF7F007A
:103410001C000020B0130020240000202600002003
:10342000250000202700002000640240200000202A
:10343000C4130020A0EB0900800804E00198A0EB71
:1034400009008008401C02904FF0000A0AE020E0CA
:10345000F849DBF8000008600AF1010A0BF1040BDF
:1034600009F1040902988245F2D30FE04FF0000AF7
:1034700005E05BF82A00EF4908600AF1010ABAF199
:10348000080FF6D30BF1200B09F120096FF040442F
:1034900003E00CB90420E1E6641EE6484C380068FD
:1034A00040F21A61084000289AD0082002F0CAFFB2
:1034B00028B1082002F0D1FF0420CFE623E002204B
:1034C00002F0C0FF20B1022002F0C7FF0220C5E6D3
:1034D000102002F0B7FF20B1102002F0BEFF05203F
:1034E000BCE64FF4007002F0ADFF28B14FF400705D
:1034F00002F0B3FF0720B1E6FCF7D7FE40F2FF5021
:1035000002F0ABFF43E0CC48007801283FD1002017
:10351000CA490870CA490870CA490870C548443881
:10352000006840F21A310843C24944390860402219
:1035300029460698FFF750FBBE485438006840F013
:103540000800BC495439086000E0641EBE480068A9
:1035500000F0006008B9002CF7D11CB9FFF79CFA05
:1035600004207BE64FF0FF3400E0641EB54800788D
:1035700020B9B248007808B9002CF6D10CB9042063
:103580006CE6AE48007810B1AC48007866E640F2D0
:10359000FF5002F062FF04A8FFF7FDFD064603E0BE
:1035A00004A8FFF7F8FD06463EB99DF8100007286D
:1035B000F6D09DF810000628F2D030464EE62DE9F0
:1035C000FF5F84B0DDE912470026002003900290DF
:1035D000002580468146019007FB04FBDDF810A022
:1035E000DDF810A0BAF1000F03D1262008B0BDE825
:1035F000F09F00208F4954390860944988604860E2
:10360000401E0860012048610020C860086108462B
:1036100002F0B1FE87486C38006800F0007008B115
:103620000E20E3E78A480078022808D10402DDE989
:103630000601400A40EAC1504912CDE90601002CBA
:103640001FDDB4F5006F1CDC601E2040C8B92046A9
:10365000FFF7FDFA03907F48046010207D49486021
:10366000402088600020C8604FF4806008610846F0
:1036700002F055FE1020FEF796FC06461EB13046BD
:10368000B4E72620B2E7012F6FD907FB04F0B0F1B1
:10369000007F01D32620A9E76D48007838B16C4837
:1036A0000078012803D06A48007802282DD16A48A2
:1036B000008800046749086037204860402088601F
:1036C0000020C8604FF480600861084602F027FEC1
:1036D0003720FEF768FC06460EB1304686E75D48A7
:1036E000076017205B494860402088600020C86060
:1036F0004FF480600861084602F011FE1720FEF7C3
:1037000052FC06460EB1304670E7524906980860F2
:1037100019204860402088600020C8604FF4806015
:103720000861084602F0FBFD1920FEF73CFC064646
:103730000EB130465AE7039800014449886007FB00
:1037400004F048604FF0FF3008600120486100201D
:10375000C8600861084602F00EFE3748007800286D
:1037600067D1451EFCF79FFD40E0F6E04FF4804036
:1037700002F068FEA8B3ABEB080020281ED2ABEB2A
:10378000080000F0030018B9ABEB0800800803E064
:10379000ABEB08008008401C01904FF0000909E0E5
:1037A0002449DAF80000086009F101090AF1040A65
:1037B00008F1040801988145F2D30FE04FF00009A9
:1037C00005E05AF829001B49086009F10109B9F11F
:1037D000080FF6D30AF1200A08F120086FF04045DF
:1037E00004E0FFE70DB9042000E76D1E11484C38D6
:1037F000006840F21A3108400028B7D0082002F0D3
:1038000021FE20B1082002F028FE0420EEE602206E
:1038100002F018FE20B1022002F01FFE0220E5E6B1
:10382000102002F00FFEC8B1102002F016FE052095
:10383000DCE64BE0802C0140240000202600002024
:10384000250000202700002000640240C41300204F
:103850001C000020B0130020200000204FF4007056
:1038600002F0F0FD28B14FF4007002F0F6FD0720E1
:10387000BCE64FF4807002F0E5FD00B3F548007837
:1038800038B1F4480078012803D0F24800780228C3
:1038900015D10020F04908600C2048604020886065
:1038A0000020C8604FF480600861084602F037FDD0
:1038B0000C20FEF778FB06460EB1304696E6FCF784
:1038C000F4FC40F2FF5002F0C8FD46E0E348007807
:1038D000012842D10020E24908700120E149087026
:1038E0000020E1490870E148006840F21A310843BD
:1038F000DE49086007FB04F140220498FFF76CF9E9
:10390000DA481038006840F00800D84910390860DB
:103910004FF0FF3500E06D1ED548006800F00060F4
:1039200008B9002DF7D11DB9FFF7B6F804205DE600
:103930004FF0FF3500E06D1ECB48007820B9C84835
:10394000007808B9002DF6D10DB904204EE6C44820
:10395000007810B1C248007848E640F2FF5002F00B
:103960007CFD02A8FFF717FC064603E002A8FFF75C
:1039700012FC06463EB99DF808000728F6D09DF8CF
:1039800008000628F2D0304630E610B54FF48070BB
:1039900002F058FD80B3B3480078012814D100200C
:1039A000AD4908600C204860402088600020C86055
:1039B0004FF480600861084602F0B1FC0C20FEF76D
:1039C000F2FAA749087002E00020A5490870A7484C
:1039D000001F006840F48070A449091F0860081D9A
:1039E00000684CF23A318843A049086001209E49A2
:1039F00008709B48007810BDFFE7022002F022FD0E
:103A000068B1022002F029FD984800684CF23A3172
:103A1000884396490860022091490870EBE7082026
:103A200002F010FD68B1082002F017FD8F48006811
:103A30004CF23A3188438D49086004208849087067
:103A4000D9E7202002F0FEFC68B1202002F005FD3D
:103A5000864800684CF23A31884384490860062061
:103A60007F490870C7E7102002F0ECFC68B1102015
:103A700002F0F3FC7D4800684CF23A3188437B4900
:103A80000860052076490870B5E74FF4007002F031
:103A9000D9FC70B14FF4007002F0DFFC734800688D
:103AA0004CF23A3188437149086007206C4908702C
:103AB000A1E700209FE710B5FFF767FF10BD70B5C5
:103AC0000446002514B92625284670BD694800889B
:103AD0000004614908600D20486040208860002093
:103AE000C8604FF480600861084602F018FC0D20A1
:103AF000FEF759FA05460DB12846E6E75B48283837
:103B0000006820602846E0E708B50020009068467D
:103B1000FFF7D5FF08B1FF2008BD0098C0F3432090
:103B2000FAE72DE9FE4F83460E46914600200290AB
:103B3000002534464748007818B1680240EAD45559
:103B400064020BF00300F0B14FF0000A18E04FF4EC
:103B5000007000904FEA4A20071945EBE0733A469F
:103B60004548FFF77DF802904FF4007242495846ED
:103B70000CF053FD0BF5007B0AF1010000F0FF0A89
:103B8000CA45E4DB16E0B9F1010F09D14FF400702A
:103B900022462B4600905846FFF762F8029009E053
:103BA0004FF4007022462B46CDE900095846FFF736
:103BB00078F902900298BDE8FE8F2DE9FE4F064687
:103BC000894692460020029000254C462148007804
:103BD00018B1680240EAD455640206F00300F0B15F
:103BE0004FF0000B18E04FF40072314622480CF001
:103BF00014FD4FF4007000904FEA4B20071945EB7D
:103C0000E0733A461C48FFF711FB029006F5007678
:103C10000BF1010000F0FF0BD345E4DB16E0BAF135
:103C2000010F09D14FF4007022462B460090304618
:103C3000FFF7FCFA029009E04FF4007022462B4691
:103C4000CDE9000A3046FFF7BAFC02900298BDE8C1
:103C5000FE8F00001C000020B01300202400002074
:103C60002600002025000020270000203C2C0140D9
:103C700000640240200000205814002010B50121EB
:103C80001A4803F01EFE20B119480068401C18496C
:103C900008600121154803F025FE10BD7FB50546DB
:103CA0000C460121022002F0FAF90195ADF800401E
:103CB0000020ADF80800ADF8020069460B4803F09B
:103CC00048F901221146094803F0E4FD1D208DF852
:103CD0000C0000208DF80D0001208DF80E008DF8ED
:103CE0000F0003A801F04BF97FBD00000004004065
:103CF00000000020FE4908807047FD49891C0880AB
:103D00007047FB48801C00887047F94A10804FF0CC
:103D1000D842A2F8801070470146F54801804FF064
:103D2000D840B0F880007047F2484089F0490880D8
:103D30007047EF49891C0880704710B503460C4650
:103D4000EC49887B2146FFF7E0FFEA49087B1946EA
:103D5000FFF7DBFF10BD70B505460E460024314667
:103D60002846FFF7EAFF07E0E148007800F001008D
:103D700000B105E0601C84B241F6FF708442F3DBC1
:103D800000BFDB48801C008870BD00B50346D948E1
:103D9000008920F03F00D74908810846008903F0D8
:103DA0003F010843D3490881084601890520FFF7F0
:103DB000ACFF00BD00B5034619460320FFF7A5FF81
:103DC00000BD00B5CB4801890520FFF79EFF00BD6F
:103DD00000B500210520FFF798FF00BD00B50346A0
:103DE000C448008920F46060C249088108460089FF
:103DF00003F0070140EA4120BE49088108460189D5
:103E00000520FFF782FF00BD00B50346B9480089D1
:103E100020F4E040B74908810846008903F0070113
:103E200040EA0130B3490881084601890520FFF7BF
:103E30006CFF00BD00B5034633B1012B09D0022B46
:103E40000CD0032B14D10EE001210720FFF75DFFFA
:103E500013E003210720FFF758FF0EE000210720A1
:103E6000FFF753FF09E002210720FFF74EFF04E0B0
:103E700001210720FFF749FF00BF00BF00BD30B59B
:103E800004460D4629462046FFF757FFFFF74CFF33
:103E9000994800889649891C088030BD10B5954B1B
:103EA000DB89934C23804FF0D843A3F88010914BCB
:103EB0009B894FF0D844A4F87E302346A3F88000B5
:103EC0008C4B5B89A4F87E302346A3F8802010BD7C
:103ED0007047F0B504460E4615461F466119491E47
:103EE00088B2FFF767FF31462046FFF726FFF0BD97
:103EF00070B5044600267F48058840884543002168
:103F00000846FFF71AFFFFF70FFF00BF03E07848EE
:103F1000801C0480761CAE42F9D370BD00B5A1B000
:103F20000020209001217A2002F070F8012108463B
:103F300002F0A4F84FF400401E9001208DF87C00A0
:103F400000208DF87E0002208DF87D0001208DF884
:103F50007F001EA9694801F0BBFD4CF233701E9032
:103F600002208DF87C0000208DF87E0003208DF863
:103F70007D0001208DF87F001EA9614801F0A8FD99
:103F80004FF680701E9002208DF87C0000208DF886
:103F90007E0003208DF87D0001208DF87F001EA992
:103FA000584801F095FD4FF480501E9002208DF886
:103FB0007C0000208DF87E0003208DF87D0001201C
:103FC0008DF87F001EA9504801F082FD4FF480500B
:103FD0001E9002208DF87C0000208DF87E000320CA
:103FE0008DF87D0001208DF87F001EA9474801F063
:103FF0006FFD0C220021424801F0F5FD0C22012149
:104000003F4801F0F0FD0C2204213D4801F0EBFD9A
:104010000C2205213A4801F0E6FD0C22082138481F
:1040200001F0E1FD0C220921354801F0DCFD0C22F4
:104030000A21334801F0D7FD0C220E21304801F04F
:10404000D2FD0C220F212E4801F0CDFD0C220721BC
:104050002C4801F0C8FD0C2208212A4801F0C3FDBC
:104060000C220921274801F0BEFD0C220A21254817
:1040700001F0B9FD0C220B21224801F0B4FD0C2205
:104080001146204801F0AFFD0C220D211D4801F022
:10409000AAFD0C220E211B4801F0A5FD0C220F21C8
:1040A000184801F0A0FD0C221146174801F09BFDB5
:1040B0000C221146154801F096FD062008900020BC
:1040C000099005200A9000200B900C900D900E9006
:1040D000062001900020029005200390002004900B
:1040E00005900690079006200F90002010900FE09A
:1040F0007E00006C581600202C00002000040240B6
:10410000000C02400010024000140240001802405F
:10411000119010201290002013901590149016907A
:1041200017904FF480501890002019904FF4804061
:104130001A9000201B9008A81C9001A81D900FA8A1
:1041400001F077F90121062001F0FEF9642000F06A
:1041500027FE08E0FFF7D5FD00F0010000B107E001
:104160002098401C209041F6FF7120988842F1D39E
:1041700000BF0120F74988810020C88102204881C2
:104180004FF4487008804FF4F07048800020FFF72B
:1041900051FE0020FFF722FE0020FFF735FE40F21F
:1041A0001F30FFF707FE3F20FFF7EFFD4FF6FF70D0
:1041B000FFF79EFE21B000BD2DE9F04F05460E46EB
:1041C00017469846DDF824A04FF0000B781B401CE2
:1041D0001FFA80FB344614E021462846FFF7ADFD68
:1041E000FFF7A2FD4FF0000907E04FF0D840A0F81C
:1041F00080A009F101001FFA80F9D945F5DB601CA8
:1042000084B24445E8DDBDE8F08F2DE9F84F07465C
:104210000D4690469946DDF828B0A8EB0700401CF3
:104220001FFA80FAA9EB0500401C80B20090002420
:1042300014E0281981B23846FFF77FFDFFF774FDBF
:10424000002607E004FB0A603BF81000C249088022
:10425000701C86B25645F5DB601C84B2009884421F
:10426000E7DBBDE8F88F2DE9FF4F84B081468A4631
:104270000020039002900698A0EB09050798A0EB98
:104280000A06CDF80490CDF800A0002D01DD01272D
:1042900005E00DB9002702E04FF0FF376D42002E18
:1042A00002DD4FF0010806E016B94FF0000802E009
:1042B0004FF0FF387642B54201DD2C4600E034462F
:1042C0004FF0000B21E0009A91B2019A90B2FFF7F3
:1042D000D6FD039828440390029830440290039836
:1042E000A04205DD0398001B03900198384401901B
:1042F0000298A04205DD0298001B029000984044FD
:1043000000900BF101001FFA80FB601C8345DADD91
:1043100008B0BDE8F08FF0B504460D4616461F46BE
:104320002B46324629462046FFF79DFF3B46224654
:1043300029462046FFF797FF3B463246394620463E
:10434000FFF791FF3B46324629463046FFF78BFF89
:10435000F0BD2DE9F04306460F4690460024454641
:104360000320A0EB48093CE07A1B91B2321990B2CD
:10437000FFF785FD3A1B91B2721990B2FFF77FFDEE
:104380003A1991B2721990B2FFF779FD7A1991B288
:10439000321990B2FFF773FD7A1991B2321B90B2C5
:1043A000FFF76DFD3A1991B2721B90B2FFF767FDEE
:1043B0007A1B91B2321B90B2FFF761FD3A1B91B2AA
:1043C000721B90B2FFF75BFD641CB9F1000F03DABA
:1043D000A000801D814404E0601B80000A308144FD
:1043E0006D1EAC42C0DDBDE8F0832DE9F84F0546F7
:1043F0000F4690461E4600975848B0F80090A8F126
:10440000200000F0FF080A9800284ED1002449E05F
:104410000C2E07D108EB4800514901EB800010F841
:1044200004A004E04F4800EB081010F804A04FF07F
:10443000000B31E00AF0800018B14848A0F8009065
:1044400003E0494800884549088039462846FFF777
:1044500016FD4FEA4A604FEA106A781C87B23D4861
:104460000088A84204DC3D48A0F80090BDE8F88F21
:104470000098381AB0420BD1009F681C85B23548AD
:104480000088A84203DC3548A0F80090EEE706E07B
:104490000BF1010000F0FF0BBBF1080FCADB00BFFE
:1044A000601CC4B2B442B3DB44E0002440E00C2EF4
:1044B00007D108EB48002A4901EB800010F804A05E
:1044C00004E0284800EB081010F804A04FF0000B9F
:1044D00028E00AF0800018B139462846FFF7CFFCE3
:1044E0004FEA4A604FEA106A781C87B21948408840
:1044F000A84203DC1948A0F80090B7E70098381AE2
:10450000B0420BD1009F681C85B212480088A842B7
:1045100003DC1248A0F80090A8E706E00BF10100C8
:1045200000F0FF0BBBF1080FD3DB00BF601CC4B26F
:10453000B442BCDB0948A0F8009000BF96E710B574
:104540000246012000E050430B00A1F10104E1B25A
:10455000F9D110BD581600208000006C2C000020FE
:104560002A1901089E1D01082E0000202DE9FF4F89
:1045700081B0074691461E460E9D4FF0000A00246A
:1045800039E0301B401EC1B20A20FFF7D8FFB9FB4B
:10459000F0F00A21B0FBF1F201FB1208BAF1000FB2
:1045A00016D1701EA04213DDB8F1000F0ED100200D
:1045B000AB4605EBDB71491001FB0471009088B23A
:1045C0002B4620220299FFF710FF12E04FF0010A5C
:1045D0000020AB4605EBDB71491001FB0471009034
:1045E00088B208F13001CAB22B460299FFF7FDFEEE
:1045F00000BF601CC4B2B442C3DB05B0BDE8F08F9D
:104600002DE9FF4F82B0064692461F46DDE90F486E
:104610000020019000254DE0781B401EC1B20A2009
:10462000FFF78DFFBAFBF0F00A21B0FBF1F201FBBE
:104630001209019850BB781EA84227DDB9F1000F7E
:1046400022D108F0800078B108F00100A34604EB05
:10465000DB71491001FB0561009088B223463022CE
:104660000399FFF7C2FE0EE008F00100A34604EB39
:10467000DB71491001FB0561009088B223462022BE
:104680000399FFF7B2FE13E00120019008F001004A
:10469000A34604EBDB71491001FB0561009088B271
:1046A00009F13001CAB223460399FFF79EFE00BF0D
:1046B000681CC5B2BD42AFDB06B0BDE8F08F2DE986
:1046C000F84704460D4690469946DDE9096704F02F
:1046D000FF0A08EB04001FFA80F809EB05001FFA37
:1046E00080F916E0444502DB5446A81985B24D45D1
:1046F00000DB14E0002000903A783346294620463B
:10470000FFF773FE304606EBD07104EB61018CB20B
:104710007F1C38787E2802DC38782028E2DA00BF57
:10472000BDE8F88710B5022000F0F2FA10BD1CB504
:104730000121222001F06AFC012000908DF8040084
:1047400000208DF8060001208DF807006946844896
:1047500001F0BEF94FF40060009001208DF80400D4
:104760006946804801F0B4F91CBD10B57D48006869
:1047700020F440007B4908600846006840F480004F
:1047800008600120784908607849C1F880021E203D
:1047900000F0BEFA002074490860FFF7C3FF002054
:1047A0007249C1F8800210BD10B56E48006820F44F
:1047B00040006C4908600846006840F480000860CA
:1047C00001206B4908601E2000F0A2FA0020694910
:1047D000C1F8AC02FFF7A6FF01206349086010BDD5
:1047E00010B500245F48006820F440005D4908606F
:1047F00008460068086001205B4908605B49C1F811
:104800008002FFF78FFF09E0601CC4B2FA2C03DDC1
:10481000FFF7CAFF012010BDFFF784FF5248803820
:1048200000680028F0D15249086000BFF3E710B5D6
:1048300000204F4908604B48006820F44000494977
:1048400008600846006840F480000860FFF76AFFCF
:1048500000204849C1F8AC02FFF764FF0120444939
:104860000860FFF75FFF00204049C1F8800210BDDB
:1048700010B500203E4908603A48006820F4400026
:10488000384908600846006840F480000860FFF777
:1048900049FF01203749C1F8AC02FFF743FF01206F
:1048A00033490860FFF73EFF00203049C1F880021D
:1048B00010BD70B504462B48006820F4400029491B
:1048C00008600846006840F480000860002028491D
:1048D0000860FFF727FF002511E0E0092249086082
:1048E0006006040E01202149C1F88002FFF71AFF7B
:1048F00000201F490860FFF715FF681CC5B2082D8E
:10490000EBDB70BD70B5054600241648006820F446
:104910004000144908600846006808601E2000F046
:10492000F7F9002612E0002011490860FFF7FAFEAF
:1049300001200E49C1F880026006040E0A48803842
:10494000006808B1601CC4B2701CC6B2082EEADB55
:1049500015B9FFF78DFF01E0FFF769FF204670BD35
:104960000004024000140240AC82424200804042F7
:10497000808240420080424210B5CD48006838B97C
:10498000CC4890F8210040F08000CA4981F821000D
:10499000022003F002F910BD2DE9F04104460E4655
:1049A00017464FF00008FFF7E0FEBA20FFF781FF3F
:1049B000FFF716FF2012FFF77CFFFFF711FFE0B2B1
:1049C000FFF777FFFFF70CFF00250BE0705DFFF7A7
:1049D00070FFFFF705FF8046B8F1000F00D003E03D
:1049E000681CC5B2BD42F1DB00BFFFF7DDFE4046EB
:1049F000BDE8F0812DE9F04105460F461646FFF768
:104A0000B4FEBA20FFF755FFFFF7EAFE2812FFF7C2
:104A100050FFFFF7E5FEE8B2FFF74BFFFFF7E0FEC0
:104A2000FFF7A3FEBB20FFF744FFFFF7D9FE0024EA
:104A30000BE0711EA14201D0012100E000210846D7
:104A4000FFF760FF3855601CC4B2B442F1DBFFF7DA
:104A5000ABFEBDE8F0812DE9F04104460D4600268D
:104A6000002700BF0DE0EAB2214640F2A260FFF746
:104A700093FF064606B906E00A2000F091F9781C7B
:104A8000C7B2052FEFDB00BF3046BDE8F08110B59F
:104A90000020894908600A2000F082F90120874936
:104AA000C1F8B402642000F07BF910BD10B586B0E7
:104AB00000240121062001F0A9FA0121880301F058
:104AC000FFFA4FF40050009001208DF80400002000
:104AD0008DF8060003208DF8050001208DF80700F1
:104AE0006946774800F0F4FF0220009000208DF81E
:104AF000040003208DF8050001208DF807006946A9
:104B0000704800F0E5FF0121084601F0D2FC0220C8
:104B1000029000208DF80C000C208DF80D00012073
:104B20008DF80E0002A802F0C7FF07208DF81000D4
:104B300003208DF811008DF8120001208DF813006C
:104B400004A800F01CFAFFF7F2FDFFF7A0FF012216
:104B500005A940F21770FFF74DFF9DF814000402FD
:104B6000012205A94FF4E360FFF744FF9DF814000C
:104B70000443214654A00BF047FB42F2100084424C
:104B800005D16A215448FFF766FF059001E0022035
:104B900005909DF8140006B010BD00B589B04548D9
:104BA00090F8210000F0800008B909B000BD222271
:104BB000694640F22170FFF71DFF9DF8000000F0EC
:104BC0001F003C4981F821009DF803009DF8021068
:104BD00000EB0120C0F5F070364948829DF80500D1
:104BE0009DF8041000EB0120324908819DF8060071
:104BF00008779DF808009DF8071000EB0120C0F52C
:104C0000F07081B22B4881829DF80A009DF809104E
:104C100000EB012081B2274841819DF80B104177BC
:104C20009DF80D009DF80C1000EB0120C0F5F07010
:104C300081B22048C1829DF80F009DF80E1000EB54
:104C4000012081B21B4881819DF8101081779DF869
:104C500018009DF8111000EB0120C0F5F07081B232
:104C6000144801839DF81A009DF8191000EB0120EB
:104C700081B21048C1819DF81B10C1779DF81D00BD
:104C80009DF81C1000EB0120C0F5F07081B20948BE
:104C900041839DF81F009DF81E1000EB012081B29A
:104CA000044801829DF8201080F8201000BF7CE7A6
:104CB0000482404230000020B402414200004142E0
:104CC000000802400004024076657273696F6E3A14
:104CD00025780D0A00000000EA30010810B50446EE
:104CE0006FF0040000F098F9E11704EB5171C1F383
:104CF000C701394A11701046007800EB4001C1EB42
:104D0000C0104FF6FF7101EAC0003449088010BDA1
:104D10000146314A12784A434FF0E0235A6100229B
:104D20009A611A46126942F001021A6100BF4FF0FF
:104D3000E022106900F001021AB100F48032002A6A
:104D4000F5D04FF0E022126922F001024FF0E0238B
:104D50001A6100229A6170470146204A12884A432C
:104D60004FF0E0235A6100229A611A46126942F01C
:104D700001021A6100BF4FF0E022106900F0010249
:104D80001AB100F48032002AF5D04FF0E022126907
:104D900022F001024FF0E0231A6100229A6170476D
:104DA00070B504464FF4077094FBF0F0C6B24FF4B0
:104DB000077094FBF0F100FB114085B205E04FF461
:104DC0000770FFF7C9FF701EC6B2002EF7D115B1EC
:104DD0002846FFF7C1FF70BD540000205600002098
:104DE000014600BF704700BF4E4A128802F04002E1
:104DF000002AF9D0C2B24B4B9A80704710B588B0E8
:104E000004460121084601F001F90121102001F0BA
:104E100057F907220921444800F0E5FE07220A213C
:104E2000414800F0E0FE4FF4C060069002208DF88B
:104E30001C008DF81D0000208DF81E0001208DF84B
:104E40001F0006A9384800F043FE02940020ADF888
:104E50000C00ADF80E00ADF81000ADF814000C20F9
:104E6000ADF8120002A92F4801F0C3FB01212D4823
:104E700001F047FC40212B4801F02BFD012240F2BC
:104E80002551284801F0F3FC25208DF8040003206B
:104E90008DF805008DF8060001208DF8070001A8A7
:104EA00000F06DF808B010BD10B540F225511D4856
:104EB00001F018FD10B31B4801F052FCC4B21B48AE
:104EC000008800F40040C8B91848008800F4804009
:104ED00060B10A2C03D000201449088020E0134858
:104EE000008840F400401149088019E00D2C06D1DB
:104EF0000E48008840F480400C49088010E00B48C0
:104F00000088C0F30D000A490C5408480088401C72
:104F10000649088008460088C72801DD002008806F
:104F200010BD000000100140000002405C000020A5
:104F3000681600200948804709480047FEE7FEE759
:104F4000FEE7FEE7FEE7FEE7FEE7FEE7FEE7FEE739
:104F500004480549054A064B704700003918000807
:104F60008901000828C2012028C8012028C4012086
:104F700028C4012032490143324A1160704770B59C
:104F8000002100230F22C4781CB32E4C246804F4A3
:104F9000E064C4F5E064C4F30721C1F10404E3B2A2
:104FA0000A4144789C40E1B28478144021430C07C4
:104FB000210E254C05786155047804F01F05012465
:104FC000AC4005786D11AD0005F1E025C5F8004154
:104FD00009E0047804F01F050124AC401B4D06785D
:104FE000761145F8264070BD194A0A400243154B18
:104FF0001B1F1A60704739B1124A121D1268024312
:10500000104B1B1D1A6006E00E4A121D12688243E7
:105010000C4B1B1D1A607047042808D14FF0E0218B
:10502000096941F004014FF0E022116107E04FF0FF
:10503000E021096921F004014FF0E022116170477D
:105040000000FA050CED00E000E400E080E100E083
:1050500080FFFF1F016821F0010101600021016054
:1050600041608160C160016121214161DB49884269
:1050700004D13D21D94A103A91608CE0D7491831CA
:10508000884205D14FF47461D44A103A916082E0AD
:10509000D2493031884205D14FF47411CF4A103AC9
:1050A000916078E0CD494831884205D14FF0746174
:1050B000CA4A103A91606EE0C8496031884204D112
:1050C000C749C64A103AD16065E0C4497831884280
:1050D00004D1C449C14A103AD1605CE0BF49903163
:1050E000884204D1C049BD4A103AD16053E0BB495F
:1050F000A831884205D14FF03D51B84A103AD160ED
:1051000049E0BA49884204D13D21B84A083A1160C1
:1051100041E0B6491831884205D14FF47461B34A71
:10512000083A116037E0B1493031884205D14FF477
:105130007411AE4A083A11602DE0AC4948318842FA
:1051400005D14FF07461A94A083A116023E0A749DC
:105150006031884204D1A249A44A121F11601AE0AA
:10516000A2497831884204D19E49A04A121F116099
:1051700011E09E499031884204D19B499B4A121FFD
:10518000116008E09949A831884204D14FF03D519F
:10519000964A121F1160704710B500220268944BA6
:1051A0001A40CC680B6823434C6923438C69234322
:1051B000CC6923430C6A23434C6A23438C6A234300
:1051C0004C6B23438C6B23431A430260426922F0E9
:1051D0000702D1E90B3423431A4342610B69436050
:1051E0004B6883608B68C36010BD00210160416023
:1051F0008160C160016141618161C161016241629F
:105200008162C162016341638163704721B10268B9
:1052100042F00102026003E0026822F00102026033
:10522000704721B1026842F40042026003E0026864
:1052300022F400420260704721B1026842F020026D
:10524000026003E0026822F02002026070474160C1
:1052500070470146486880B2704722B1036843F442
:105260000023036003E0036823F40023036001616B
:10527000704721B1026842F48022026003E00268B4
:1052800022F48022026070470AB1016100E0C1602F
:105290007047014600200A6802F400220AB101208A
:1052A00000E000207047014600200A6802F0010279
:1052B0000AB1012000E000207047014600204A6941
:1052C00002F03800704730B503460A46002000243B
:1052D000464DAB4202D24149103901E043491039F1
:1052E00002F000550DB14C6800E00C68414D2C40B7
:1052F00004EA02050DB1012000E0002030BD0246A5
:105300003A4B9A4202D23548103801E037481038FB
:1053100001F000531BB1374B0B40C36002E0354B2B
:105320000B408360704710B501F080034BB122B190
:10533000436943F08003436103E0436923F0800342
:10534000436180290BD02AB1036801F01E04234376
:10535000036004E0036801F01E04A343036010BD72
:1053600070B50246002000240025204EB24202D231
:105370001A4B103B01E01D4B103B1F4E0E4036B147
:105380001E2606EAD124166806EA040502E05669DC
:1053900006F0800501F000560EB15C6800E01C6864
:1053A000144E344004EA010616B10DB1012000E0AC
:1053B000002070BD02460D4B9A4202D207481038B9
:1053C00001E00A48103801F000531BB1094B0B40B3
:1053D000C36002E0074B0B408360704710600240DF
:1053E0003D000020400F002000003D2010640240DE
:1053F0003F801CF07D0F7D0F3C0F3C0F30B943F216
:10540000DB028100A1F1C0410A6005E043F2D20253
:105410008100A1F1C0410A606FF07042411C890017
:10542000A1F1C0410A608100A1F1C041C1F804218D
:105430007047D0E901121143C26811430269114358
:105440004269114382691143C2691143026A1143DF
:10545000426A1143826A1143C26A1143026B1143CB
:1054600002689200A2F1C0421160816808290BD144
:1054700001688900A1F1C041096841F0400201685A
:105480008900A1F1C0410A60416B0968426B526812
:1054900041EA0211426B926841EA0221426B928911
:1054A00041EA0241426B128A41EA0251426B127D8B
:1054B00041EA0261426B926911430268521C9200F8
:1054C000A2F1C0421160C16AB1F5804F1BD1816B5E
:1054D0000968826B526841EA0211826B926841EA64
:1054E0000221826B128A41EA0251826B127D41EAEB
:1054F0000261826B9269114302689200A2F1C0427C
:10550000C2F8041107E06FF0704201688900A1F150
:10551000C041C1F8042170470021016002214160AF
:1055200000218160C160016141618161C1610162ED
:105530004FF480514162490081620021C1620163E0
:10554000F84941638163704751B18200A2F1C042C2
:10555000126842F001038200A2F1C042136009E028
:105560008200A2F1C0421268EF4B1A408300A3F1FF
:10557000C0431A60704710280AD118214FF020420A
:105580001166402151664FF0FC319166D16610E002
:105590001821E64A116040214FF02042C2F88410E1
:1055A0004FF0FC31E14A083211604FF02042C2F85E
:1055B0008C10704730B5002100220023446844F06D
:1055C000080485682C43C5682C4305692C4345694C
:1055D00044EA4524856944EA4531C4692468C569BB
:1055E0006D6844EA0524C5692D8944EA0544C56906
:1055F0002D7B44EA0562046A2468056A6D6844EA02
:105600000524056A2D8944EA0544056A2D7B44EA90
:1056100005630468102C05D14FF020442166A26672
:10562000E36608E0C14C21604FF02044C4F88820B4
:10563000BE4C0C34236030BD10210160002141605C
:105640008160C160016141618161FC21C2691160B9
:10565000C2695160C2699160C269D160026A116019
:10566000026A5160026A9160026AD160704799B122
:10567000102808D14FF02042126E42F004024FF081
:1056800020431A661DE0A94A126842F004024FF056
:105690002043C3F8802014E0102809D14FF02042A5
:1056A000126EA14BDB1E1A404FF020431A6608E031
:1056B0009E4A12689C4BDB1E1A404FF02043C3F8F1
:1056C0008020704799B1102808D14FF02042126E07
:1056D00042F040024FF020431A661DE0934A1268E0
:1056E00042F040024FF02043C3F8802014E010281D
:1056F00009D14FF02042126E8B4B3F3B1A404FF0C6
:1057000020431A6608E0894A1268874B3F3B1A40DB
:105710004FF02043C3F88020704701460020102935
:1057200003D14FF02042506F02E0804A14321068DB
:10573000704718207D492031086000200906C1F813
:10574000A4004FF0FC30794928310860091D086039
:10575000091D08607047016841F01001426841EA84
:105760004221826841EA4231704A20321160C168A8
:105770000968C268526841EA0221C268128941EA96
:105780000241C268127B41EA0261684A2832116014
:10579000016909680269526841EA022102691289B5
:1057A00041EA02410269127B41EA02615F4A2C32FE
:1057B0001160416909684269526841EA02214269FF
:1057C000128941EA02414269127B41EA02614FF0CB
:1057D0002042C2F8B0107047002101604160816032
:1057E000FC21C2681160C2685160C2689160C268E1
:1057F000D1600269116002695160026991600269B9
:10580000D1604269116042695160426991604269A8
:10581000D160704748B145492031096841F0040121
:105820004FF02042C2F8A01009E040492031096839
:105830003D4AD21E11404FF02042C2F8A0107047DE
:1058400010B5F2B1102807D14FF020435B6E0B4327
:105850004FF02044636632E0B0F5807F08D1334BCF
:105860001B1D1B680B434FF02044C4F8843026E016
:105870002E4B24331B680B434FF02044C4F8A43054
:105880001DE0102807D14FF020435B6E8B434FF093
:105890002044636613E0B0F5807F08D1234B1B1DC5
:1058A0001B688B434FF02044C4F8843007E01F4B43
:1058B00024331B688B434FF02044C4F8A43010BD40
:1058C00010B5024600200023102A03D14FF02044D7
:1058D000636E09E0B2F5807F03D1144C241D236868
:1058E00002E0124C2434236803EA01040CB10120C5
:1058F00000E0002010BD102807D14FF02042526E6A
:105900008A434FF020435A6619E0B0F5807F0FD1EB
:10591000064A121D12688A434FF02043C3F88420C0
:105920000DE0000054310108FEFF0F00800000A0D0
:10593000234A12688A434FF02043C3F8A4207047DB
:1059400070B502460020002300240025102A03D150
:105950004FF02046736E08E0B2F5807F03D1184EF9
:10596000203E336801E0164E336803EA010403EA7F
:10597000D10514B10DB1012000E0002070BD102848
:1059800008D14FF02042526E22EAD1024FF020435C
:105990005A6614E0B0F5807F09D1094A203A1268AE
:1059A00022EAD1024FF02043C3F8842007E0044AE2
:1059B000126822EAD1024FF02043C3F8A4207047B6
:1059C000A40000A010B504469848844208D10121E3
:1059D000084600F086FB0021012000F082FB76E003
:1059E0009348844208D10121022000F07AFB002173
:1059F000022000F076FB6AE08E48844208D1012143
:105A0000042000F06EFB0021042000F06AFB5EE041
:105A10008948844208D10121082000F062FB00215E
:105A2000082000F05EFB52E08448844208D1012146
:105A3000102000F056FB0021102000F052FB46E041
:105A40007F48844208D10121202000F04AFB002138
:105A5000202000F046FB3AE07A48844208D1012138
:105A6000402000F03EFB0021402000F03AFB2EE0F9
:105A70007548844208D10121802000F032FB0021CA
:105A8000802000F02EFB22E07048844208D10121E2
:105A9000801500F026FB0021A01500F022FB16E087
:105AA0006B48844208D10121401500F01AFB002107
:105AB000601500F016FB0AE06648844207D1012118
:105AC000001500F00EFB0021201500F00AFB10BDB0
:105AD000F0B50A4600210023002400BF3DE0012567
